:020000040000fa
:080000000002040000000000f2
:020000040000fa
:04000800d40200001e
:020000040000fa
:04000c00d40200001a
:020000040000fa
:04001000d402000016
:020000040000fa
:04001400d402000012
:020000040000fa
:04001800d40200000e
:020000040000fa
:04001c00d40200000a
:020000040000fa
:04002000d402000006
:020000040000fa
:04002400d402000002
:020000040000fa
:04002800d4020000fe
:020000040000fa
:04002c00d4020000fa
:020000040000fa
:04003000d4020000f6
:020000040000fa
:04003400d4020000f2
:020000040000fa
:04003800d4020000ee
:020000040000fa
:04003c00d4020000ea
:020000040000fa
:04004000d4020000e6
:020000040000fa
:04004400d4020000e2
:020000040000fa
:04004800d4020000de
:020000040000fa
:04004c00d4020000da
:020000040000fa
:04005000d4020000d6
:020000040000fa
:04005400d4020000d2
:020000040000fa
:04005800d4020000ce
:020000040000fa
:04005c00d4020000ca
:020000040000fa
:04006000d4020000c6
:020000040000fa
:04006400d4020000c2
:020000040000fa
:04006800d4020000be
:020000040000fa
:04006c00d4020000ba
:020000040000fa
:04007000d4020000b6
:020000040000fa
:04007400d4020000b2
:020000040000fa
:04007800d4020000ae
:020000040000fa
:04007c00d4020000aa
:020000040000fa
:04008000d4020000a6
:020000040000fa
:04008400d4020000a2
:020000040000fa
:04008800d40200009e
:020000040000fa
:04008c00d40200009a
:020000040000fa
:04009000d402000096
:020000040000fa
:04009400d402000092
:020000040000fa
:04009800d40200008e
:020000040000fa
:04009c00d40200008a
:020000040000fa
:0400a000d402000086
:020000040000fa
:0400a400d402000082
:020000040000fa
:0400a800d40200007e
:020000040000fa
:0400ac00d40200007a
:020000040000fa
:0400b000d402000076
:020000040000fa
:0400b400d402000072
:020000040000fa
:0400b800d40200006e
:020000040000fa
:0400bc00d40200006a
:020000040000fa
:0400c000d402000066
:020000040000fa
:0400c400d402000062
:020000040000fa
:0400c800d40200005e
:020000040000fa
:0400cc00d40200005a
:020000040000fa
:0400d000d402000056
:020000040000fa
:0400d400d402000052
:020000040000fa
:0400d800d40200004e
:020000040000fa
:0400dc00d40200004a
:020000040000fa
:0400e000d402000046
:020000040000fa
:0400e400d402000042
:020000040000fa
:0400e800d40200003e
:020000040000fa
:0400ec00d40200003a
:020000040000fa
:0400f000d402000036
:020000040000fa
:0400f400d402000032
:020000040000fa
:0400f800d40200002e
:020000040000fa
:0400fc00d40200002a
:020000040000fa
:04010000d402000025
:020000040000fa
:04010400d402000021
:020000040000fa
:04010800d40200001d
:020000040000fa
:04010c00d402000019
:020000040000fa
:04011000d402000015
:020000040000fa
:04011400d402000011
:020000040000fa
:04011800d40200000d
:020000040000fa
:04011c00d402000009
:020000040000fa
:04012000d402000005
:020000040000fa
:04012400d402000001
:020000040000fa
:04012800d4020000fd
:020000040000fa
:04012c00d4020000f9
:020000040000fa
:04013000d4020000f5
:020000040000fa
:04013400d4020000f1
:020000040000fa
:04013800d4020000ed
:020000040000fa
:04013c00d4020000e9
:020000040000fa
:04014000d4020000e5
:020000040000fa
:04014400d4020000e1
:020000040000fa
:04014800d4020000dd
:020000040000fa
:04014c00d4020000d9
:020000040000fa
:04015000d4020000d5
:020000040000fa
:04020800d40200001c
:020000040000fa
:04020c00d402000018
:020000040000fa
:04021000d402000014
:020000040000fa
:04021400d402000010
:020000040000fa
:04021800d40200000c
:020000040000fa
:04021c00d402000008
:020000040000fa
:04022000d402000004
:020000040000fa
:04022400d402000000
:020000040000fa
:04022800d4020000fc
:020000040000fa
:04022c00d4020000f8
:020000040000fa
:04023000d4020000f4
:020000040000fa
:04023400d4020000f0
:020000040000fa
:04023800d4020000ec
:020000040000fa
:04023c00d4020000e8
:020000040000fa
:04024000d4020000e4
:020000040000fa
:04024400d4020000e0
:020000040000fa
:04024800d4020000dc
:020000040000fa
:04024c00d4020000d8
:020000040000fa
:04025000d4020000d4
:020000040000fa
:04025400d4020000d0
:020000040000fa
:04025800d4020000cc
:020000040000fa
:04025c00d4020000c8
:020000040000fa
:04026000d4020000c4
:020000040000fa
:04026400d4020000c0
:020000040000fa
:04026800d4020000bc
:020000040000fa
:04026c00d4020000b8
:020000040000fa
:04027000d4020000b4
:020000040000fa
:04027400d4020000b0
:020000040000fa
:04027800d4020000ac
:020000040000fa
:04027c00d4020000a8
:020000040000fa
:04028000d4020000a4
:020000040000fa
:04028400d4020000a0
:020000040000fa
:04028800d40200009c
:020000040000fa
:04028c00d402000098
:020000040000fa
:04029000d402000094
:020000040000fa
:04029400d402000090
:020000040000fa
:04029800d40200008c
:020000040000fa
:04029c00d402000088
:020000040000fa
:0402a000d402000084
:020000040000fa
:0402a400d402000080
:020000040000fa
:0402a800d40200007c
:020000040000fa
:0402ac00d402000078
:020000040000fa
:0402b000d402000074
:020000040000fa
:0402b400d402000070
:020000040000fa
:0402b800d40200006c
:020000040000fa
:0402bc00d402000068
:020000040000fa
:0402c000d402000064
:020000040000fa
:0402c400d402000060
:020000040000fa
:0402c800d40200005c
:020000040000fa
:0402cc00d402000058
:020000040000fa
:0402d000d402000054
:020000040000fa
:0402d400d402000050
:020000040000fa
:0402d800d40200004c
:020000040000fa
:0402dc00d402000048
:020000040000fa
:0402e000d402000044
:020000040000fa
:0402e400d402000040
:020000040000fa
:0402e800d40200003c
:020000040000fa
:0402ec00d402000038
:020000040000fa
:0402f000d402000034
:020000040000fa
:0402f400d402000030
:020000040000fa
:0402f800d40200002c
:020000040000fa
:0402fc00d402000028
:020000040000fa
:04030000d402000023
:020000040000fa
:04030400d40200001f
:020000040000fa
:04030800d40200001b
:020000040000fa
:04030c00d402000017
:020000040000fa
:04031000d402000013
:020000040000fa
:04031400d40200000f
:020000040000fa
:04031800d40200000b
:020000040000fa
:04031c00d402000007
:020000040000fa
:04032000d402000003
:020000040000fa
:04032400d4020000ff
:020000040000fa
:04032800d4020000fb
:020000040000fa
:04032c00d4020000f7
:020000040000fa
:04033000d4020000f3
:020000040000fa
:04033400d4020000ef
:020000040000fa
:04033800d4020000eb
:020000040000fa
:04033c00d4020000e7
:020000040000fa
:04034000d4020000e3
:020000040000fa
:04034400d4020000df
:020000040000fa
:04034800d4020000db
:020000040000fa
:04034c00d4020000d7
:020000040000fa
:04035000d4020000d3
:020000040000fa
:100400002f8620000eff20000e0188000000000053
:10041000000020000000e000020032000001200087
:100420002002880014000700c10007000000e0005f
:1004300003003a00c0232100010020000200370021
:100440000000200001002000810f70000100320038
:1004500014000700000020000000e000020032004d
:1004600000000200000000009812020000000000de
:100470000040da000000fe004440a9000001200016
:100480000000e0000300320000002000a00188000e
:100490004440a800000006008a1f78008b1f7800e7
:1004a0000000060091018800800478000000eb0045
:1004b0001a003700e284440032a0b4009905ba0063
:1004c000e284440032a0b4009906ba00e2844400f9
:1004d00032a0b4000006eb00476fde00fd07b2005b
:1004e000636ce10003003a00ebff07000000eb0043
:1004f0000a003700606ce10004003a00005deb0088
:100500008b05e900fdff3e00040037006168e10053
:10051000010032000086eb000b00070019c7ba008b
:100520001905ba000e04e00003003a000a00e000da
:10053000e0ff3a0000000600fe07b2009e018800be
:100540008a047800f5ff3700395dba008b05e900b1
:100550000c003200295dba008b05e900080032006a
:100560000c00e00003003a00e284440032a0b40032
:10057000f5ff370019ddba008b05e900faff3a00f4
:100580008904e800e184440032a0b40000000600c1
:10059000000000000000000000000000000000005b
:1005a00000000000000000000040da000000fe0033
:1005b000ec8747008e1f78006c87570044002000ae
:1005c000041f7800000f78006c87570002afbe0050
:1005d000e1bf9f006c8057005b0607001e00be0055
:1005e0004f077800cf00b10000000600ec874700fd
:1005f0008e1f780011002000a1bf9f006c8757005c
:10060000002f78006c805700510607001e0078000c
:100610004f077800cf00b10000000600ec874700cc
:100620008e1f7800e20f500034003e00004380002f
:10063000e10f500003003200e20f500011003a00b9
:100640000c003700032220000300e00001003a0004
:100650000040da002002e200020035002822ef000c
:1006600021e2a8002342ab000d003a002342a8007b
:100670000b003700030020000300e00001003a00f7
:100680000040da000000e200020035000020ef0028
:1006900001e0a8000140ab0001003a000140a800c1
:1006a000820178000b0037003102fb00e10f50009f
:1006b00004003a002322ab00feff3a002411880018
:1006c000030037000120ab00feff3a000400880061
:1006d0008301e9000300e000f3ff3a00e10f50005e
:1006e00003003a002302ab00feff32000c0037008b
:1006f0000100ab00feff3200090037006c87570095
:1007000033002000031f7800000f7800c1bf9f0056
:10071000d2bf9f006c8057000f0607005fb997009b
:10072000020078004f077800cf00b10000000600fb
:10073000000005000000fa00cfb89700688157005c
:100740000040800010007800e60107000080fa00f9
:10075000000006000b0007006300070013010700fc
:100760003b01070095003700000006006080200074
:1007700000000600fdff07002040880010408800b0
:1007800000000600ec874700889fbe008a9fbe00dd
:100790008c9fbe008e1f7800000678000104780050
:1007a000180790002805900098067800cdb79f00a4
:1007b000b80590003202be002203be000400be0055
:1007c0000601be004f18de006011b8008000eb008b
:1007d000d0b79f00e1b79f00f2b79f0083bf9f0093
:1007e000800478000900e000060032006000b800d4
:1007f0006011b800040250008582580006035900b9
:10080000878359000e00e000020035000d10a100a2
:10081000cdb79f000900e00005003a004fb09700f7
:100820000028a30002003a000038a30002003200b2
:100830008a00e900010037008a007800f88157003b
:10084000a200200008007800860007000900e000f0
:1008500003003a00cfb097000128a300080032003f
:100860000000e90000814500b1c2b3000900e000ca
:1008700001003200d1c2b300014978000500370001
:100880000138a300030032000000e90001c2b300f8
:1008900081757800480190000201e90000015100d3
:1008a000808045004fb297008a0178000c007800e4
:1008b000cc0107009c0090000188a30004003200d6
:1008c00098009000810f500001003d000100780069
:1008d0004f0778004f06be004f05be004f04be0014
:1008e000cf00b100000006000200fa00889fbe00a1
:1008f0008a9fbe000005780001047800020078009d
:1009000018019000a805900098007800b1bf9f00e2
:10091000b80490000200e000020035000110a100c0
:10092000b1bf9f00ea815700820020008b00780051
:100930003002be002003be00080078004900070016
:100940003fb99700f0006100030032000000e900a9
:1009500001c3b300817478003fb99700e8006100db
:10096000030032000000e90001c2b3008174780086
:10097000480190000201e90000015100808044001c
:100980003fba97008b0178000a00780095010700b4
:100990009a0090000188a3000400320098009000a3
:1009a000810f500001003d00010078004f05be009e
:1009b0004f04be000080fa0000000600ea874700ee
:1009c000889fbe008a9fbe008e1f780000047800ba
:1009d000030078007287570084e2260055c726007e
:1009e000049fbe00c3962200030f78006c87570057
:1009f000004feb0011059000a104900091057800d4
:100a00000200e00002003200020778000100370017
:100a1000728757000000e00002003a000e007800e4
:100a2000030407000a00e000030035008a0f5000ad
:100a3000010036000a0078000b0278008901780076
:100a4000000178008e00780008007800650107003a
:100a50004f0778004f05be004f04be00af00b10045
:100a600000000600f4874700889fbe008a9fbe00f2
:100a70008c9fbe008e1f78000605be000404be00d9
:100a800081bf9f0082b79f00f3b79f00b000900026
:100a9000e1b79f001301780092b79f009006900085
:100aa000400690000c06e9000d00e00001003d004a
:100ab0001d002000efb197000c8041000048eb00c2
:100ac0001e0020001f0037000c06e9000fb0970041
:100ad000cf80de006109b900a0b79f00b1b79f00c9
:100ae000c2b79f00d3b79f000203be000002be0042
:100af0000800be000a01be00c2050700000778001a
:100b0000efb097000c80400003c3b30003484700d8
:100b10008d06e9000fb897000000e90080bf9f0034
:100b20002fb29700bfb297004fb39700dfb3970083
:100b30000800be000a01be00ab0507000205be00aa
:100b40000004be000c00e0000d003200e00f540075
:100b5000e08f5c00e00f5d00e08f5d00daff3a009f
:100b60000d00e000d8ff3c008fb897000100e000c6
:100b7000030034001fb197000218a300d2ff3a000f
:100b80000e00e00002003a00ffb197001340a10000
:100b90000c0078004f0778004f06be004f05be00de
:100ba0004f04be004f01b100000006000200fa0031
:100bb000889fbe008a9fbe008004780001047800f0
:100bc0000200780018019000280590009800780035
:100bd000b1bf9f00b80590000200e00002003500a0
:100be0000110a100b1bf9f00ea815700a2002000c0
:100bf0008a0078003002be002003be0008007800a2
:100c000098ff0700480190000201e900000151002f
:100c1000808045003fba97008a017800090078007b
:100c2000f0000700990090000188a3000400320042
:100c300098009000810f500001003d0001007800f5
:100c40004f05be004f04be000080fa000000060001
:100c5000fa874700889fbe008a9fbe008c9fbe0017
:100c60008e1f7800800478000104780082057800e7
:100c7000180190002805900018077800b80090002f
:100c80000200e000020035000e10a1000100370054
:100c90001200200070006700e0b79f0009003200da
:100ca0003b02be002b03be00e00f5200e08f5a0053
:100cb000e00f5b00e08f5b00020032008a86e900f3
:100cc000010037008a067800e8026700f5b79f0048
:100cd000010032008d06e9003b02be002b03be007e
:100ce000e4af9f00f5af9f0086b79f0097b79f00c6
:100cf000480690000c06e9000c8040000048eb001c
:100d0000efb297007fb297008903780081047800e2
:100d1000d8af9f00020478008bbf9f008a0578003f
:100d2000034578002a0037000c06e9006fab9700f6
:100d30006f006300e90f500002003c000003b000a8
:100d4000010037007005b0000a03fb001604b10073
:100d5000f90f53000c003e00000378000650a0007d
:100d60001606b100f90f530007003e00b4b79f000c
:100d7000a5b79f00c7b79f007c030700cfb39700bc
:100d8000afb297003fb2970080747e000804e9007c
:100d90008d06e9006fa89700ffa897000fb1970094
:100da0009fb19700460020008301d1000281d3004b
:100db0008180d3000080d3000603e900faff3a00e7
:100dc000e0af9f00f1af9f0082b79f0093b79f00f5
:100dd000e10f56000f0036006fa89700ffa897009c
:100de0000fb197009fb19700e00f5000e08f5800bf
:100df000e00f5900e08f5900cbff3a000800e000f7
:100e0000c9ff3c000d00e000020034000e18a300f2
:100e1000c5ff3a0089007800f4b79f008704780086
:100e20005fac97008a4178000b0578008fbd970072
:100e30000500e000100032003b02be002b03be00a4
:100e4000e4af9f00f5af9f0086b79f0097b79f0064
:100e5000e00f5200e08f5a00e00f5b00e08f5b0074
:100e6000050032000c06e90083707e000c06e900e4
:100e700000c3b30080707e00ffb297000500e00061
:100e8000030032000c06e90000c2b30080707e004f
:100e9000480190000201e9000c0151008c804000e3
:100ea0000e0278008a017800090078004d000700e2
:100eb000990090000188a30004003200980090007f
:100ec000810f500001003d00010078004f077800bd
:100ed0004f06be004f05be004f04be00af01b1007b
:100ee000000006000200fa00881f78000004780065
:100ef000e2bf9f006481570008007800ec01070002
:100f0000980090000148a300010032000080eb002f
:100f10004f0478000080fa0000000600889fbe00a1
:100f20008a1f78008004780049009000020478004d
:100f3000800f54000100360000047800080178009a
:100f40006a8544001a0078004f0207001a00440026
:100f5000000d7800e8844400990c14000048eb0070
:100f60004f0578004f04be00000006001000780016
:100f7000aafd3700900190000388a3000100320011
:100f8000e6ff37000348a30001003a00f7ff07001f
:100f900000000600889fbe008a1f78008004780049
:100fa0004900900002047800800f540001003600d0
:100fb00000047800080178006a8544001a0078006f
:100fc000310207001a004400000d7800e884440054
:100fd000990c14000048eb004f0578004f04be0048
:100fe00000000600f2874700889fbe008a9fbe006f
:100ff0008c9fbe008e1f7800800478000105780069
:1010000002047800830578006107620002003a005c
:101010008b0f540008003900080178008a0078001e
:1010200009007800d3ff07008b0f5400020039003d
:10103000880578001e003700088655000c017800ee
:10104000f00f5600010036000201200001022000ce
:101050007e805700130207008c06780005003700d9
:1010600002012000fe80570009007800c1ff070040
:10107000f0865600ef8f5600f9ff3e004461de0017
:1010800000ff2f000091b90002014600fe805700ca
:1010900009007800b7ff07000e00e00004003a00e6
:1010a000080178008a00780009007800b1ff070085
:1010b0000b0078004f0778004f06be004f05be00ba
:1010c0004f04be002f01b100000006000000050023
:1010d0000000050000000500000178000040eb0062
:1010e0008080fb00818040008384200063c2780000
:1010f0000404e00003003a009084200060c07800ff
:101100000000060092017800934f520004003a005c
:101110009084200060c078000309e80001003700d7
:101120000040e800ea4f5000edff360000000600e6
:10113000f6874700889fbe008a9fbe008c9fbe0036
:101140008e1f780080047800010478008305780001
:10115000040678000000eb00c0b79f008080eb0021
:10116000d1b79f00e0b79f00f2b79f0000082000b2
:1011700080bf9f0098007800010078000005eb0018
:10118000010037000a05e800304178000204e00061
:101190000300320053c2b300834f5100f9ff3a00fd
:1011a0000a00e000040032000a017800090078001b
:1011b00070ff0700180c45001807780050c2b300f4
:1011c0009e4f100033013a000e07e8000e0c780025
:1011d00010003700cfb097000100a0000b003700cf
:1011e000cfb097000110a00008003700cfb09700e3
:1011f0000120a00005003700cfb097000130a0000b
:1012000002003700cfb097000140a000c1b79f0097
:10121000000ce8001800780090407800b2c2b300db
:1012200082cf5000f1ff320007003c0002c2b30041
:1012300082cf5000f0ff320032c2b30082cf5000a4
:1012400007003a00efff3700d2c2b30082cf500050
:10125000e0ff320002c3b30082cf5000e0ff320053
:10126000a2c2b30082cf50000d003a00000ce8008b
:101270001c80e900000e780010007800e0b79f00a5
:101280000000e0000f003d00cfb097000100a20079
:10129000c1b79f000000ea00e0b79f0009003700d7
:1012a00005020700e0b79f0001003700000ce800ce
:1012b000180078009000fb000103b100e98f500096
:1012c000faff36004fb097000008a300020032007a
:1012d0000010a100c0b79f0018007800e1c2b30061
:1012e00090cf100016003a008000eb00d1b79f00ad
:1012f0000000e800000c7800a1c2b30090cf1000fd
:1013000006003a00000ce8001c80e900000e78009e
:1013100010007800d0b79f0009003700e6010700f1
:10132000d0b79f0001003700000ce80018007800db
:101330009000fb000103b100e98f5000faff360076
:101340000800780064ff07008046780018007800e5
:101350001000fb00fe01070091062000810f5000e5
:101360003800320012003c0041062000810f50007e
:10137000340032000a003c0011062000810f5000aa
:101380002000320031062000810f50009a00320008
:1013900051022000810f5000ae003a00a700370034
:1013a00071062000810f5000aa003c008200370027
:1013b00001072000810f50005c00320007003c0054
:1013c000e1062000810f500074003200f106200079
:1013d000810f50009f003a0039003700510720006c
:1013e000810f50002700320081072000810f50003c
:1013f0004200320031072000810f500095003a0072
:10140000850037008d80fb000c01780000fe2f0066
:101410000f004000dc0107000000e0009c003200eb
:1014200018007800000ce8009041780002fe2f00c0
:101430000f014100f88057000900780024ff0700e1
:101440000e0037008d80fb008c0178001200200018
:1014500000fe2f000f004000ea0107000000e0003e
:101460008b003200180ce80002fe2f000f01410033
:10147000f880570009007800c2fc0700000545000d
:10148000840037008d80fb008c0178000001eb00a8
:1014900000fe2f000f004000da0107000000e0000e
:1014a0007b003200180ce80002fe2f000f01410003
:1014b000f880570009007800bcfd0700efff3700f7
:1014c0008d80fb008c0178000001eb0000fe2f00f6
:1014d0000f004000cb0107000000e0006c0032006c
:1014e000180ce80002fe2f000f014100f8805700a1
:1014f00009007800fcfc0700e0ff37008d80fb004e
:101500008c0178000001eb0000fe2f000f0040006e
:10151000bc0107000000e0005d0032001800780008
:10152000000ce80090417800160037008c0178002c
:101530000001eb00010f200000fe2f000f00400013
:10154000b00107000000e00051003200180ce80074
:101550000fb097009fb097002fb19700bfb19700d1
:10156000e00f5000e08f5800e00f5900e08f590065
:1015700003003a008001eb00228420004000370085
:1015800083c7b30002fe2f000f014100f88057000f
:1015900009007800aefd0700b8ff37000b014500d9
:1015a0008d80fb008c01780000fe2f000f004000b2
:1015b000ed010700360037008d80fb000c0178003c
:1015c00000fe2f000f0040006f0107000000e00048
:1015d0002f00320018007800000ce80090417800dd
:1015e00002fe2f000f014100f8805700090078002b
:1015f000b7fe0700a1ff370000c8b30080cf560038
:1016000023003a00180ce8001c80e900000e780066
:10161000104078000d00370000c8b30080cf56009e
:101620001b003a00180ce8001c80e900000e78004e
:101630008001eb00100178001100370001c8b300f1
:1016400081cf560012003a00180ce800e0df9f003e
:101650000800370050c2b300e0df9f000e0c780096
:101660000000eb00c0b79f00e0b79f008080eb0058
:10167000d1b79f0013002000e2fd2f000f014100b1
:10168000f880570009007800ccfc07007bff37008a
:10169000180ce8000a0078004f0778004f06be00db
:1016a0004f05be004f04be006f01b10000000600f0
:1016b0008200fa00889fbe008a1f7800000578002b
:1016c00082047800c13f9f000004eb001000370047
:1016d0000902780088017800a2f72f000f0141006d
:1016e00081f72f008f8040000a00780090fe0700ed
:1016f00008004000880f500004003d00b0042000a6
:10170000f04288000084eb000400370000047800f9
:101710004f3897001004e000edff3a000800780011
:101720004f0578004f04be000080fa00000006005c
:10173000889fbe008a1f78000004780001057800a9
:101740000000eb000800e0001a00320018009000d2
:101750000058a3000c003200ea0444006800900026
:10176000990f100008003600b80990000001eb0046
:101770008200780008007800030001000080eb0080
:101780001900e0000b003200740044000008eb0078
:101790006c0044000008eb006a0044000008eb0005
:1017a0000000eb000a00e0000200320018007800a0
:1017b0008efb07004f0578004f04be0000000600b6
:1017c000889fbe008a1f78000004be000000eb0066
:1017d0000800e00029003200180090000058a30023
:1017e000120032006a054400680090009a0f100051
:1017f00008003600b80990000001eb008200780074
:1018000008007800030001000080eb001a00e000ef
:101810001a003200740044000008eb006c00440021
:101820000008eb006a0044000008eb00780a900012
:1018300008109000800f5200060031000002520094
:1018400011002000cfa2de00612bb9001800780043
:1018500057fb070000022000080040000008eb00d2
:101860007e0044000008eb000000eb000900e000ef
:1018700002003200180078005cfb07004f0578007a
:101880004f04be000000060080017800020037000f
:10189000b15978000201e9000200e000fcff3a00c3
:1018a00000000600889fbe008a9fbe00800478006a
:1018b0000200e0005a00320001407800814c7800bc
:1018c00082814400f1f99f00e20f5100540036007c
:1018d00091449800a1449800e1f99f00d1f99f003c
:1018e000e60f51004e003600b1449800c1f99f0048
:1018f000e80f51004a0036000905ea00630565005b
:101900000a8444000a055100c1ff2f00010565004b
:101910000080fb008000eb0012102000131020005c
:1019200083010700008cbe000a01440060b99f00db
:1019300071b99f00e80f5500390036002004980067
:1019400031049800400498005104980020b99f0089
:1019500031b99f0040b99f0051b99f00f80f550061
:101960002f0036006004980071049800000c980065
:10197000110c9800200c9800310c9800400c980035
:10198000510c980020b19f0031b19f0040b19f00e1
:1019900051b19f0060b19f0071b19f0000b99f00dd
:1019a00011b99f0064016400780141000204440001
:1019b000020555006011b8000203be000002be001f
:1019c0000403be006022b800000072008180720033
:1019d00002017300838173000f0037000802780052
:1019e000009abe00029abe00009abe000292be009b
:1019f000000c9800110c9800220c9800330c9800f1
:101a0000400c9800510c9800620c9800730c9800e0
:101a10000a02b1000802b000ff0f5500efff3e00c0
:101a2000090078004f05be004f04be00000006000c
:101a300080007800040037003104e00002003a0022
:101a40000000510000000600010178000108a30019
:101a5000f9ff3a008101780031017800f4ef2f009e
:101a6000020242000281ea0002016200040828002a
:101a700004016100f7ff3200830078000101780063
:101a80003104e000fdff3a000000510000000600b4
:101a9000800078001000200002022000828f500099
:101aa00004003200e9805000e48f5000010036004d
:101ab0000000eb0000000600889fbe008a1f78002f
:101ac000800478000904780088047800394578009b
:101ad0000a00fb00eeff07000000e000f9ff3a00fb
:101ae000b0c2b300804f550005003200d0c2b30031
:101af0008000eb00804f550005003a0002003700df
:101b00008000eb0001003700110020000804e8000d
:101b10000000eb00030037006a02b9000200520027
:101b20000003b0003801fb0003fd2f00828141005b
:101b3000e98f5100f8ff36000100e00001003a0093
:101b40000000ea004f0578004f04be0000000600c8
:101b5000f1fb2f0080804000f98f500001003e0013
:101b60000050a00000000600f9ff3700f1f92f0037
:101b700080804000f98f500001003e00f005b20067
:101b800000000600f9ff3700881f78000004780085
:101b900000082000808f500017003500100820003a
:101ba000808f50000b00340030082000808f5000e0
:101bb00011003a0092007800688050000009780017
:101bc0003002be002003be00049cbe000694be008e
:101bd0000700370092027800648052000009780004
:101be0001000be009e000700009cbe000294be00d4
:101bf00010002000010037000000eb004f047800c7
:101c00000000060084082000848f50001d00320070
:101c10000d003c0014082000848f50002700320083
:101c200002003c00040820000400370024082000c3
:101c3000848f50002a00320044082000848f500016
:101c400048003a003b003700040a2000848f50000f
:101c50002c00320004003c0004092000848f500056
:101c600040003a002d003700020c2000828f500007
:101c70001e003200020f2000828f500039003a000f
:101c8000300037009380e9000200e00005003200d8
:101c9000810978001102fb00cfa2de00612bb900a0
:101ca0002d00370081097800114278000482fb0082
:101cb0008002eb006033b800270037001302780081
:101cc000e40052000200e0000a00320081097800be
:101cd0001102be004fabde00860378001e00370005
:101ce00093027800e88052000e00370093027800db
:101cf000e4805200810978001102be006033b80010
:101d0000150037009380e9008109780011027800fe
:101d1000cfa2de00612bb9000f003700130378005b
:101d2000e8005300810978003102be002103be00a3
:101d3000090037009380e9000200e0000200320051
:101d4000f1ff37009380e9008109780011027800e3
:101d50008002eb006033b8000498be000690be001d
:101d6000100005000000050044082000848f50008a
:101d7000270032000a003c0014082000848f500025
:101d80001c00320024082000848f500026003200fe
:101d900004082000848f50002c003a001c003700fb
:101da00004092000848f50001f00320004003c0012
:101db00084082000848f500024003a000700370078
:101dc000040a2000848f500011003200040c20000f
:101dd000848f50001d003a00060037009380e90010
:101de0008109780091007800010878008248780025
:101df000150037009380e900810978009100780090
:101e000001087800cf91de008288be000e00370006
:101e10009380e9008109780091007800010878003a
:101e200082087800080037009380e9008109780073
:101e300091007800010878006112b900612bb900a7
:101e40008498be008690be001000050000000500ca
:101e50000000060047fa0700fdff0700fcff3700ff
:101e6000810378001d0007000001be006000b8007b
:101e70000478a30013003a006220e10015003e0040
:101e80000d0039008301d1000281d3008180d3008d
:101e90008301d1000281d3008180d3008301d1006e
:101ea0000281d3008180d3000538b000c42add0050
:101eb000f300b2008381720007f0a70003f0a000d6
:101ec0000000060083ff2700020020006110b90017
:101ed000f9ff370003ff2700f7ff3700c70ade00ce
:101ee000f107b200f50fb20008003200e1cf420066
:101ef000020032000170a00024000500810f700074
:101f0000010032000408050044000500810f700044
:101f100002003a00140005008502e90000004000bc
:101f200081c04800fcff3b000170a00024000500b8
:101f3000020ab900001bb9000200b800810042008b
:101f4000810043000000060000c0da000000060027
:101f500000c0da000000060000c0da000000060041
:101f6000889fbe008a9fbe0030044200b0844a00b1
:101f700030054b0090854b006000b1000898be0012
:101f80000a90be000440e10005c8e10006d0e1006f
:101f900007d8e10002003100680040001008e800a6
:101fa0004f05be004f04be0000000600889fbe0023
:101fb0008a9fbe003004be002005be0004185400f5
:101fc00005985c0006185d0007985d001100200070
:101fd0000440e10005c8e10006d0e10007d8e100b7
:101fe000010039008000eb00108810004f05be0092
:101ff0004f04be0000000600f4874700889fbe0023
:102000008a9fbe008c9fbe008e1f7800d0b79f00b5
:10201000e1b79f00f2b79f0083bf9f000605be0097
:102020000404be00cfae97000000eb00c0b79f00d5
:10203000b0b79f00a0b79f0090b79f0080b79f00e8
:10204000000678004fb09700000140000000e0005b
:1020500006003d003c0007000f0747004500070051
:102060000f004000beff07000500370036000700e4
:102070000f0747003f0007000f004000cbff07009d
:102080004fb797000e00e0000c0035005fb29700dc
:10209000efb297007fb397008fbb9700100020002e
:1020a000010020006011b8000002720081827200fd
:1020b00002037300838373001c0007000c06e80012
:1020c00001042000810f5600deff3a000e00e00000
:1020d00005003d000802be000a03be0000fe2f00fe
:1020e0000f0040009eff07000d00e00005003a00d1
:1020f0000fb297009fb297002fb39700bfb397001e
:102100000a0007005fb09700efb097007fb197001b
:102110008fb997004f0778004f06be004f05be00ed
:102120004f04be004f01b10000000600010007008f
:102130000000060094b79f00a5b79f00b6b79f00a8
:10214000c7b79f00000006009fb097004f08de0051
:1021500002017000a2b79f000fb097004f01de0090
:10216000818040008100710091b79f000efe2f001a
:1021700000000600de0078004f09de00000040008d
:102180000000710080b79f006fa897004f01de002c
:1021900081804000010f71000e0007004f3ade0001
:1021a0000000400004007000e0af9f00090007003d
:1021b0000402420085824a0006034b0087834b00dd
:1021c000dcff07000802be000a03be0000fe2f006d
:1021d000000006001fb29700afb297003fb3970010
:1021e000cfb3970000000600881f78001800200079
:1021f000881f780080ff07008f87e9004f04780070
:1022000000000600801feb007bff07008f87e900be
:1022100000000600889fbe008a9fbe00e00f5000ad
:10222000e08f5800e00f5900e08f59000c003d008e
:102230006044b8006055b8000000540081805c0024
:1022400002015d0083815d00180020001500070079
:1022500008003d00180007000004eb0005003700ef
:102260000004eb000f00070002003d001200070011
:1022700018002000dcff07000800e0000600320024
:102280006022b8006033b8000000520081805a001c
:1022900002015b0083815b004f05be004f04be005e
:1022a00000000600e00f5200e08f5a00e00f5b00d4
:1022b000e08f5b00000006006044b8006055b80085
:1022c0000402540085825c0006035d0087835d0084
:1022d00000000600889fbe008a9fbe008c1f780009
:1022e000e00f5000e08f5800e00f5900e08f5900d8
:1022f0000d003d006044b8006055b8000000540077
:1023000081805c0002015d0083815d001c00200073
:102310000820e10009a8e1000ab0e1000bb8e100e3
:102320000d003d00080037000006eb00e00f5200f2
:10233000e08f5a00e00f5b00e08f5b0006003d007d
:102340006044b8006055b8000402540085825c0007
:1023500006035d0087835d00aaff07000c00e00014
:10236000060032006022b8006033b800000052005e
:1023700081805a0002015b0083815b004f06780078
:0c2380004f05be004f04be000000060028
:020000040000fa
:10238c00564c000041440000494d000049520000e9
:10239c0020350000380d00000a2500006300000005
:020000040000fa
:1023ac000000fa00c902a9004136800000fe2f008f
:1023bc00008060003000b30040368800c922a800bd
:1023cc002135800000fe2f00008060009000b300db
:1023dc002035880021e2a9002002a900011180000b
:1023ec0090ff2f0000806000001188002062a9007f
:1023fc00f0012000401188002342a80021e2a8002f
:10240c000080fa00000006000200fa00004f78007d
:10241c0000000000111180000020200000806000ee
:10242c000000e000fbff3a001e00fb0020118800ba
:10243c000080fa00000006000200fa00000f78008d
:10244c00040037001e007800104078001e0fe800d2
:10245c00edff07001e007800104078000004e0003b
:0c246c00f8ff3a000080fa0000000600b3
:020000040000fa
:1024780000080000420000000200000004080600f6
:10248800080608000100030000000000000000002a
:10249800000000000000e0000b0000000000000049
:1024a80000b60700b40300000000000000000000b0
:1024b8000000000000000000000000000000000014
:1024c8000000000000000000000000000000000004
:1024d80000000000420800001c000000020000008c
:1024e800286e69006c29000068076c00094c83009d
:1024f8006a907400a07ac000008068008800840098
:102508006c820000810000005e08000002000000ec
:102518000000000060080000020000000200000047
:082528000100000000000000aa
:020000040000fa
:102530000000fa009dff0700601c2900c1ff070092
:10254000005a22006102200007000700601c2900d9
:10255000801f7800301d2900801f780075f8070063
:08256000e4875700f4ff370087
:020000040000fa
:10256800f03fb1000180b10006003500ee0309001c
:1025780000000000403fb1000180b100fbff3d00ba
:102588001000b000203fb0000200350000800900b4
:08259800000000000000060035
:020000040000fa
:0200000401f009
:04000000ffffff00ff
:020000040000fa
:0200000401f009
:04000800ffffff00f7
:020000040000fa
:0200000401f009
:04000c00820000006e
:020000040000fa
:0200000401f009
:04001000a500000047
:020000040000fa
:0200000401f009
:040014005f00000089
:020000040000fa
:0200000401f009
:04001800f7000000ed
:020000040000fa
:0200000401f009
:04001c00dfff000002
:00000001FF
