:020000040000fa
:080000000002040000000000f2
:020000040000fa
:04000800c80200002a
:020000040000fa
:04000c00c802000026
:020000040000fa
:04001000c802000022
:020000040000fa
:04001400c80200001e
:020000040000fa
:04001800c80200001a
:020000040000fa
:04001c00c802000016
:020000040000fa
:04002000c802000012
:020000040000fa
:04002400c80200000e
:020000040000fa
:04002800c80200000a
:020000040000fa
:04002c00c802000006
:020000040000fa
:04003000c802000002
:020000040000fa
:04003400c8020000fe
:020000040000fa
:04003800c8020000fa
:020000040000fa
:04003c00c8020000f6
:020000040000fa
:04004000c8020000f2
:020000040000fa
:04004400c8020000ee
:020000040000fa
:04004800c8020000ea
:020000040000fa
:04004c00c8020000e6
:020000040000fa
:04005000c8020000e2
:020000040000fa
:04005400c8020000de
:020000040000fa
:04005800c8020000da
:020000040000fa
:04005c00c8020000d6
:020000040000fa
:04006000c8020000d2
:020000040000fa
:04006400c8020000ce
:020000040000fa
:04006800c8020000ca
:020000040000fa
:04006c00c8020000c6
:020000040000fa
:04007000c8020000c2
:020000040000fa
:04007400c8020000be
:020000040000fa
:04007800c8020000ba
:020000040000fa
:04007c00c8020000b6
:020000040000fa
:04008000c8020000b2
:020000040000fa
:04008400c8020000ae
:020000040000fa
:04008800c8020000aa
:020000040000fa
:04008c00c8020000a6
:020000040000fa
:04009000c8020000a2
:020000040000fa
:04009400c80200009e
:020000040000fa
:04009800c80200009a
:020000040000fa
:04009c00c802000096
:020000040000fa
:0400a000c802000092
:020000040000fa
:0400a400c80200008e
:020000040000fa
:0400a800c80200008a
:020000040000fa
:0400ac00c802000086
:020000040000fa
:0400b000c802000082
:020000040000fa
:0400b400c80200007e
:020000040000fa
:0400b800c80200007a
:020000040000fa
:0400bc00c802000076
:020000040000fa
:0400c000c802000072
:020000040000fa
:0400c400c80200006e
:020000040000fa
:0400c800c80200006a
:020000040000fa
:0400cc00c802000066
:020000040000fa
:0400d000c802000062
:020000040000fa
:0400d400c80200005e
:020000040000fa
:0400d800c80200005a
:020000040000fa
:0400dc00c802000056
:020000040000fa
:0400e000c802000052
:020000040000fa
:0400e400c80200004e
:020000040000fa
:0400e800c80200004a
:020000040000fa
:0400ec00c802000046
:020000040000fa
:0400f000c802000042
:020000040000fa
:0400f400c80200003e
:020000040000fa
:0400f800c80200003a
:020000040000fa
:0400fc00c802000036
:020000040000fa
:04010000c802000031
:020000040000fa
:04010400c80200002d
:020000040000fa
:04010800c802000029
:020000040000fa
:04010c00c802000025
:020000040000fa
:04011000c802000021
:020000040000fa
:04011400c80200001d
:020000040000fa
:04011800c802000019
:020000040000fa
:04011c00c802000015
:020000040000fa
:04012000c802000011
:020000040000fa
:04012400c80200000d
:020000040000fa
:04012800c802000009
:020000040000fa
:04012c00c802000005
:020000040000fa
:04013000c802000001
:020000040000fa
:04013400c8020000fd
:020000040000fa
:04013800c8020000f9
:020000040000fa
:04013c00c8020000f5
:020000040000fa
:04014000c8020000f1
:020000040000fa
:04014400c8020000ed
:020000040000fa
:04014800c8020000e9
:020000040000fa
:04014c00c8020000e5
:020000040000fa
:04015000c8020000e1
:020000040000fa
:04020800c802000028
:020000040000fa
:04020c00c802000024
:020000040000fa
:04021000c802000020
:020000040000fa
:04021400c80200001c
:020000040000fa
:04021800c802000018
:020000040000fa
:04021c00c802000014
:020000040000fa
:04022000c802000010
:020000040000fa
:04022400c80200000c
:020000040000fa
:04022800c802000008
:020000040000fa
:04022c00c802000004
:020000040000fa
:04023000c802000000
:020000040000fa
:04023400c8020000fc
:020000040000fa
:04023800c8020000f8
:020000040000fa
:04023c00c8020000f4
:020000040000fa
:04024000c8020000f0
:020000040000fa
:04024400c8020000ec
:020000040000fa
:04024800c8020000e8
:020000040000fa
:04024c00c8020000e4
:020000040000fa
:04025000c8020000e0
:020000040000fa
:04025400c8020000dc
:020000040000fa
:04025800c8020000d8
:020000040000fa
:04025c00c8020000d4
:020000040000fa
:04026000c8020000d0
:020000040000fa
:04026400c8020000cc
:020000040000fa
:04026800c8020000c8
:020000040000fa
:04026c00c8020000c4
:020000040000fa
:04027000c8020000c0
:020000040000fa
:04027400c8020000bc
:020000040000fa
:04027800c8020000b8
:020000040000fa
:04027c00c8020000b4
:020000040000fa
:04028000c8020000b0
:020000040000fa
:04028400c8020000ac
:020000040000fa
:04028800c8020000a8
:020000040000fa
:04028c00c8020000a4
:020000040000fa
:04029000c8020000a0
:020000040000fa
:04029400c80200009c
:020000040000fa
:04029800c802000098
:020000040000fa
:04029c00c802000094
:020000040000fa
:0402a000c802000090
:020000040000fa
:0402a400c80200008c
:020000040000fa
:0402a800c802000088
:020000040000fa
:0402ac00c802000084
:020000040000fa
:0402b000c802000080
:020000040000fa
:0402b400c80200007c
:020000040000fa
:0402b800c802000078
:020000040000fa
:0402bc00c802000074
:020000040000fa
:0402c000c802000070
:020000040000fa
:0402c400c80200006c
:020000040000fa
:0402c800c802000068
:020000040000fa
:0402cc00c802000064
:020000040000fa
:0402d000c802000060
:020000040000fa
:0402d400c80200005c
:020000040000fa
:0402d800c802000058
:020000040000fa
:0402dc00c802000054
:020000040000fa
:0402e000c802000050
:020000040000fa
:0402e400c80200004c
:020000040000fa
:0402e800c802000048
:020000040000fa
:0402ec00c802000044
:020000040000fa
:0402f000c802000040
:020000040000fa
:0402f400c80200003c
:020000040000fa
:0402f800c802000038
:020000040000fa
:0402fc00c802000034
:020000040000fa
:04030000c80200002f
:020000040000fa
:04030400c80200002b
:020000040000fa
:04030800c802000027
:020000040000fa
:04030c00c802000023
:020000040000fa
:04031000c80200001f
:020000040000fa
:04031400c80200001b
:020000040000fa
:04031800c802000017
:020000040000fa
:04031c00c802000013
:020000040000fa
:04032000c80200000f
:020000040000fa
:04032400c80200000b
:020000040000fa
:04032800c802000007
:020000040000fa
:04032c00c802000003
:020000040000fa
:04033000c8020000ff
:020000040000fa
:04033400c8020000fb
:020000040000fa
:04033800c8020000f7
:020000040000fa
:04033c00c8020000f3
:020000040000fa
:04034000c8020000ef
:020000040000fa
:04034400c8020000eb
:020000040000fa
:04034800c8020000e7
:020000040000fa
:04034c00c8020000e3
:020000040000fa
:04035000c8020000df
:020000040000fa
:100400004f8020000eff20000e0188000000000039
:10041000000020000000e000020032000001200087
:1004200020028800140007005b0007000000e000c5
:1004300003003a00c06e21000100200002003700d6
:100440000000200001002000810f70000100320038
:1004500014000700000020000000e000020032004d
:1004600000000200000000008a16020000000000e8
:100470000040da000000fe004440a90060b4200003
:100480000000e0000300320000002000a00188000e
:100490004440a800000006008a1f78008b1f7800e7
:1004a0000000060091018800800478000000eb0045
:1004b0001a003700e284440032a0b4009905ba0063
:1004c000e284440032a0b4009906ba00e2844400f9
:1004d00032a0b4000006eb00476fde00fd07b2005b
:1004e000636ce10003003a00ebff07000000eb0043
:1004f0000a003700606ce10004003a00005deb0088
:100500008b05e900fdff3e00040037006168e10053
:10051000010032000086eb000b00070019c7ba008b
:100520001905ba000e04e00003003a000a00e000da
:10053000e0ff3a0000000600fe07b2009e018800be
:100540008a047800f5ff3700395dba008b05e900b1
:100550000c003200295dba008b05e900080032006a
:100560000c00e00003003a00e284440032a0b40032
:10057000f5ff370019ddba008b05e900faff3a00f4
:100580008904e800e184440032a0b40000000600c1
:100590000040da000000fe00000005000001be007f
:1005a0001b0007000470a70003f0a10003f8a300dc
:1005b00013003a006509b10010003200090035004f
:1005c0006928e10002003500010028000000050054
:1005d00000004000818048008502e900fcff3a00ed
:1005e00000000600f88f4200050035008100d100b0
:1005f0000080d3008502e800fcff3a0000000600fe
:100600008000eb00000005006011b8006a033700ad
:10061000c70ade00f107b200f50fb2000800320091
:10062000e1cf4200020032000170a000240005006a
:10063000810f70000100320004080500440005002d
:10064000810f700002003a00140005008502e900e5
:100650000000400081c04800fcff3b000170a0008a
:100660002400050007f82700078361000638e10031
:1006700004003a00f70720008783610087037100b8
:1006800001003a0003f0a200889fbe008a9fbe00ce
:100690008c9fbe00470ade000480a100c71ade005e
:1006a0000580a1000700280007856000878561009c
:1006b000f70f20000720e1009e0032000728e1002c
:1006c0009c003200010678000400e000b400320013
:1006d000f7072000878060000170a0000500e0009f
:1006e000c0003200f7072000878161000370a0007e
:1006f000050652000f003a000b50e1000b003200db
:100700000308e10002003a000200e1007e0032002e
:100710000204500083845800040031000001fd00f1
:100720008101fd008402fd008a05fd006044b800df
:10073000210037000520e10005003d000001fd001b
:100740008101fd008402fd008a05fd0005065200be
:100750007a60e100050035000170a1004722dd004c
:10076000848070008a807000630037006044b800a5
:10077000ef02660007ff2f00070666000500e00095
:1007800006003400f08312008714dd000511de003e
:10079000071bdd00060171008519de007060e100b5
:1007a0000500350009047800820478000301780010
:1007b0008001eb00700656000b50e10003003a0088
:1007c00002004000838048000400370060041400e9
:1007d000e0841c0002005800838058000188a300b8
:1007e000060032008100d1000080d3008984d3004c
:1007f0000884d3000402e800270037000178a30032
:1008000025003a000100e000030032008186cf009d
:10081000698656000a0037008c0020000000e000c6
:1008200004003a0009007800880478000004eb0016
:10083000700252008086cf000d0646000c06e900cb
:100840007060e10006003500800078000900780043
:10085000880478000004eb00700656007002520015
:100860000c00e0000c0034008c08dd00f0031600e2
:100870000703de00868070000c00dd00074bde0001
:10088000060070008c4cdd000743de008684740097
:100890000c44dd000c0252006120e1002000350014
:1008a000610160000700280087816400f7ff2700ce
:1008b00087836400070374000300e0000600320031
:1008c00082037300040032000000e800e08048006a
:1008d0000188a3000e003a00f70f20000720e10076
:1008e0004a003d000170a1004722dd008100720036
:1008f0008a8070000000be004f06be004f05be009b
:100900004f04be00000006006000b800faff370088
:100910008100d1000080d3000402e800eeff370020
:100920000401780089017400a10107008a80700029
:10093000f1ff3700f7010700070278000001fd0012
:100940008101fd00f3010700870278008503720032
:100950000778a300040032000001fd008101fd00c2
:1009600006020700e4ff3700850362000768a30062
:10097000080032000b50e10003003200f0ff2f00ae
:10098000f1ff2700dcff37000001fd008101fd00c1
:10099000d9ff37000468a300d7ff3200faff370001
:1009a000f8ff2700888360000b003a000000e00099
:1009b00009003a008303640082837300020032005e
:1009c0000200be00ccff37000b50e100ceff3a0022
:1009d0000200be00c8ff3700140020008100640040
:1009e0003eff3700f8ff27008883610004003a00cb
:1009f0000200e00002003a008c007800beff3700e1
:100a0000150020008301640039ff370001f827003a
:100a10000000200081007500b7ff3700889fbe00ee
:100a20008a9fbe008c9fbe001b0020000202be00f9
:100a30000586680006002800060666004709de00f5
:100a4000f20fb200820032000243e8008000320060
:100a5000c729de00f30fb2007d0032000343e80037
:100a60007b003200f107b2000170a000f507b20070
:100a70000570a000c708dd004903de008680700015
:100a80004700dd00c72add004923de0086827200b0
:100a90004722dd0003055100040350008583580000
:100aa0000300310000004000818048000a05e90091
:100ab0008c1f78008a9fbe0004005000858058007b
:100ac0000402420085824a00000040008180480004
:100ad0000005eb000004be006033b8000406be0051
:100ae0000d48e10056003100110009004dccd8003e
:100af0000c01b8000d02b8008481410060824a00f8
:100b00008283530003045c0084845c0060055d0004
:100b10000a00e00025003a00800578000d40e10061
:100b200049003100880078000700780011000900b2
:100b30004d88d8000c01b8000d02b8008481410036
:100b400060824a006003110083835b0004045c0040
:100b5000e0845c000900e00021003a004f01be0083
:100b60000300e0002b003200e30160000706730081
:100b70008c81710001003200640070004200de00d0
:100b80004e5edd000c007000c258de0001e0a000e7
:100b900083010700cf017800818071004f06be00fd
:100ba0004f05be004f04be00000006008c834300ca
:100bb0000d044c00e0844c0060054d000000e9008d
:100bc0000a00e000d4ff32008c8343000d044c0087
:100bd000e0844c0060054d000000e900ceff3700c6
:100be0000c0343008d834b0060044c00e0844c00f8
:100bf0000000e9000900e000d8ff32000c034300c8
:100c00008d834b0060044c00e0844c000000e90040
:100c1000d2ff37004200de004e5edd000c007000a7
:100c2000c258de0001e0a000cf0178000300e00020
:100c3000daff320060001000e0801800d7ff3700b4
:100c4000f0ff2f00aaff3700f0ff2f00b9ff370099
:100c50000404be002f010700870678000004fd0091
:100c60008104fd002b010700078366000678a300be
:100c7000030032000960a7000800be002c00370006
:100c80000d78a300020032000800be0028003700e3
:100c90000778a30026003a0001f0a10009f0a100a6
:100ca0000668a30003003200f1ff2700f0ff2f00c9
:100cb000baff37000d68a300030032000800be0031
:100cc0008c807000b5ff37000768a30007003a006a
:100cd0000648a30003003200f1ff2700f0ff2f00b9
:100ce000aeff37000d48a300030032006000b800db
:100cf0008c807000a9ff37000748a3000400320071
:100d000001f82700000020008c807000a3ff37004e
:100d1000760107000004fd008104fd000205780053
:100d2000720107000802be008a01780059ff3700ef
:100d30000160a000120220001240880097ff3700d7
:100d40000100e000120032000500e0001000320057
:100d5000889fbe008a9fbe008c9fbe000006eb00ed
:100d600001f8a3000300320060001000e0801800ca
:100d70000cf0a00005f8a30003003200600212008e
:100d8000e0821a000cf0a2008005eb0041ff370062
:100d90006000b80002000500038368000700280017
:100da00007036300470ade000480a100c71ade00c3
:100db0000580a100f70f20000720e100420032006b
:100dc0000728e10040003200889fbe008a9fbe00d5
:100dd0008c1f7800f107b200f307b2000400e000b6
:100de000640032000170a0000500e00068003200dd
:100df0000370a00085054200eb07b1000204b800b3
:100e00000302b8008484440060854a00020ab800e6
:100e1000848444000a854a00030ab800040545009a
:100e2000040033000804d0008984d2000a85d2006f
:100e30008b05e9006158e1003d00350002102000fb
:100e4000090161000308200089816100f707200083
:100e50008783640008867300c84cde00c853dd0039
:100e6000878474004855de000300e000060032006d
:100e700082037600040032008904e80060054d001a
:100e80000a88a3000c003a00f70f20000758e10081
:100e900044003d000a70a100c75ddd000a857500b1
:100ea0008a007300090078004f0678004f05be00e5
:100eb0004f04be00000006000a05d1008984d3005b
:100ec0008b05e800f0ff3700881f780006047800e3
:100ed00090000700070278000001fd008101fd007d
:100ee0008c00070087027800850372000778a30052
:100ef000050032000001fd008101fd009f00070098
:100f00004f04780000000600850372000748a30024
:100f100003003200f0ff2f00f1ff2700f8ff370039
:100f20000000200001f8270088807000f4ff3700df
:100f3000880178004848dd00808171004848de0063
:100f4000c850dd0001007000c850de0006047800c3
:100f50000b0178001600070088807000d2ff370070
:100f60000500e00005003200170020003a000700ed
:100f70009dff370081037000f9ff3a00860078007a
:100f80004f0678004f05be004f04be00000005006c
:100f900083037100f9ff3200270020002e000700b4
:100fa00094ff370001f8270086807000f4ff3700b7
:100fb0000100e00026003200610111007810e1001c
:100fc00023003c006022b8007010e10004003500ee
:100fd00080027800010078008000eb007001510071
:100fe0000200e0000900340070031100062add0051
:100ff000822ade008603dd00878272000200de00a6
:10100000860bdd00070070008208de00848171001d
:10101000f4ff27000482620084817100040028002c
:10102000848262006102600005f0a60000000600f4
:1010300004827100070032000000e800e0804800f0
:10104000000006000002be006000b800efff37009d
:101050006000b80000000600889fbe000004eb009e
:101060006138e10016003a000100e00008003a0093
:10107000c800de004800dd00880020000100e0001c
:1010800003003a00c800de004800dd0068044400a8
:101090008184cf00e9845400060034008908dd0013
:1010a000f08314008703de00878070000900dd00f4
:1010b00009044400610214004f04be000000060051
:1010c0000300e00008003a00c811de004811dd000e
:1010d000880020000300e00003003a00c811de0091
:1010e0004811dd00680444008384cf00e984540083
:1010f000060034008919dd00f08314008713de0038
:10110000878171000911dd0009044400e102140027
:10111000e9ff37002700200001f0a700170020009a
:10112000470bde00f60fb200040032000643e80071
:101130000a0032004702b3000000060001037800f5
:10114000f607b2000603700002003a000703b3007e
:10115000000006008702b3000000060001037800cb
:10116000f607b20006037000020032000770a0000c
:10117000000006000760a000000006000478a3003d
:10118000040032000578a300030032000168a300c8
:1011900001003a000200be000160a000000006004d
:1011a00081017000270032008002eb0001f8a300eb
:1011b0000300320060001000e080180015002000dd
:1011c000f40720000202420020003400f703200050
:1011d000870360000604200000036300020820006b
:1011e000000161004700de00c909dd0000807100d8
:1011f000c708de000600e000080032008703710027
:10120000060032001000b0000180b0000188a30089
:1012100002003200c108de000402e800f107b2005b
:10122000f30f20000320e10003003d004722dd0012
:10123000810072002900370001f827000000eb0050
:10124000260037006000b8000000060068021200a7
:101250007f20e100020034006000b8001f0037006a
:101260006011b8007020e1000400350080017800b2
:10127000010078008000eb00700252000400e000e2
:1012800009003400f00312000719dd008419de00a4
:101290000703dd00868171000400de00070bdd001e
:1012a000060070008408de00f7ff270083836300d8
:1012b0008703710006002800030363000700320063
:1012c0000700e00003003a00610160000281730042
:1012d000020032001000b0000180b0000500a6003e
:1012e0000000060001f0a000000006004f0ade002a
:1012f0004709de00f107b200f20fb2000b00320026
:10130000f207b1000170a000c708dd00c901de00ce
:10131000838070004700dd000400a6000000060086
:1013200060001000e080180000000600810f7000cf
:1013300001003a00000006008182cf000500e000b5
:1013400010003e008082cf00ee8242007028e10053
:101350000400390007003e00800078000000eb0028
:101360000e003700708312008600de000500dd00ed
:101370000a003700708352008600dd000000eb0099
:1013800006003700e28252008508dd0070831200fb
:101390000603de00868070000500dd007507b000e2
:1013a0000501ea000400a60000000600600010002d
:1013b000e080180000000600889fbe008a9fbe00e3
:1013c0000082700004027100048271002600320065
:1013d0000004be000200be006011b8006b092000ce
:1013e000950220000182cf000a0039000541b100ba
:1013f0000082cf00070039000541b1000982cf000b
:10140000040039000541b1000882cf000100390015
:101410000541b10005425200120032000a003b00b3
:1014200082817100610164008100d1000080d300dd
:101430008984d3000884d3008b05e8000442e800c7
:10144000f7ff3a00070037000804440089844c0085
:1014500000004800818048008b05e9000442e90053
:10146000f9ff3a00030007004f05be004f04be001d
:101470000000060081002000618055000b003d0047
:101480000b00200061fe2f000100e1001d00340070
:1014900082817100610164008904d1000884d30055
:1014a0000000e800faff3a007100200061006400cb
:1014b0000300700002006000090032006104440073
:1014c000e0844c000988a500050032008b05e80087
:1014d0006808e10002003a008904d1000884d300c2
:1014e000f20f20000258e10005003d00c75ddd005d
:1014f000f907b20089807500080078000000060036
:0c1500000bf827008b00780000000500ad
:020000040000fa
:10150c0035080000f708000004080000c6080000b9
:10151c00880900009508000056090000180a000010
:10152c0024090000e5090000a50a0000b10900002b
:10153c00700a0000300b00003a0a0000f90a0000a3
:10154c00b70b0000c00a00007d0b0000390c000036
:10155c00400b0000fb0b0000b60c0000bb0b0000a6
:10156c00740c00002c0d00002f0c0000e60c000089
:10157c009c0d00009c0c0000510d0000040e00009e
:10158c00020d0000b30d0000640e00005e0d0000a3
:10159c000d0e0000ba0e0000b20d00005e0e000031
:1015ac00080f0000fc0d0000a50e00004c0f000001
:1015bc003d0e0000e10e0000850f0000720e0000d1
:1015cc00140f0000b30f00009d0e00003b0f000035
:1015dc00d70f0000be0e0000570f0000f00f0000e8
:1015ec00d20e0000680f0000fd0f0000dc0e0000a2
:1015fc006e0f0000ff0f0000da0e0000680f0000f5
:10160c00f60f0000cd0e0000570f0000e10f000098
:10161c00b40e00003b0f0000c10f0000900e000044
:10162c00140f0000960f0000620e0000e10e000087
:10163c00600f0000280e0000a50e0000200f000017
:10164c00e50d00005e0e0000d50e0000970d0000a9
:10165c000d0e0000820e0000400d0000b30d0000c6
:10166c00250e0000e10c0000510d0000bf0d000024
:10167c00790c0000e60c0000520d0000090c000073
:10168c00740c0000de0c0000930b0000fb0b000040
:10169c00630c0000160b00007d0b0000e30b000038
:1016ac00940a0000f90a00005d0b00000d0a00000e
:1016bc00700a0000d40a000082090000e50900004d
:1016cc00470a0000f408000056090000b8090000a1
:1016dc0065080000c608000027090000d4070000b8
:1016ec00350800009608000043070000a40700001e
:1016fc0005080000b2060000140700007607000081
:10170c002306000085060000e80600009605000090
:10171c00fa0500005d0600000d05000072050000d2
:10172c00d705000088040000ee04000054050000fa
:10173c00070400006f040000d80400008c030000b4
:10174c00f60300006104000018030000840300008d
:10175c00f1030000ab0200001a0300008903000033
:10176c0045020000b70200002a030000e901000056
:10177c005d020000d3020000950100000d02000084
:10178c00850200004b010000c6010000420200006f
:10179c000a0100008901000009020000d5000000c8
:1017ac0057010000da010000aa0000002f01000020
:1017bc00b60100008a000000130100009e01000029
:1017cc007500000002010000900100006b00000099
:1017dc00fc0000008e0100006d0000000201000002
:1017ec00980100007a00000013010000ad01000018
:1017fc00930000002f010000cd010000b700000095
:10180c0057010000f8010000e5000000890100000c
:10181c002e0200001f010000c60100006e02000035
:10182c00620100000d020000b8020000b0010000cf
:10183c005d0200000c03000007020000b70200006c
:10184c0069030000660200001a030000ce030000ca
:10185c00ce020000840300003b0400003e030000a5
:10186c00f6030000af040000b50300006f04000095
:10187c002a05000031040000ee040000ab05000056
:10188c00b304000072050000300600003a050000a9
:10189c00fa050000ba060000c50500008506000028
:1018ac00460700005306000014070000d50700008f
:1018bc00e2060000a40700006608000073070000a1
:1018cc0035080000f708000004080000c6080000f6
:1018dc00880900009508000056090000180a00004d
:1018ec0024090000e5090000a50a0000b109000068
:1018fc00700a0000300b00003a0a0000f90a0000e0
:10190c00b70b0000c00a00007d0b0000390c000072
:10191c00400b0000fb0b0000b60c0000bb0b0000e2
:10192c00740c00002c0d00002f0c0000e60c0000c5
:10193c009c0d00009c0c0000510d0000040e0000da
:10194c00020d0000b30d0000640e00005e0d0000df
:10195c000d0e0000ba0e0000b20d00005e0e00006d
:10196c00080f0000fc0d0000a50e00004c0f00003d
:10197c003d0e0000e10e0000850f0000720e00000d
:10198c00140f0000b30f00009d0e00003b0f000071
:10199c00d70f0000be0e0000570f0000f00f000024
:1019ac00d20e0000680f0000fd0f0000dc0e0000de
:1019bc006e0f0000ff0f0000da0e0000680f000031
:1019cc00f60f0000cd0e0000570f0000e10f0000d5
:1019dc00b40e00003b0f0000c10f0000900e000081
:1019ec00140f0000960f0000620e0000e10e0000c4
:1019fc00600f0000280e0000a50e0000200f000054
:101a0c00e50d00005e0e0000d50e0000970d0000e5
:101a1c000d0e0000820e0000400d0000b30d000002
:101a2c00250e0000e10c0000510d0000bf0d000060
:101a3c00790c0000e60c0000520d0000090c0000af
:101a4c00740c0000de0c0000930b0000fb0b00007c
:101a5c00630c0000160b00007d0b0000e30b000074
:101a6c00940a0000f90a00005d0b00000d0a00004a
:101a7c00700a0000d40a000082090000e509000089
:101a8c00470a0000f408000056090000b8090000dd
:101a9c0065080000c608000027090000d4070000f4
:101aac00350800009608000043070000a40700005a
:101abc0005080000b20600001407000076070000bd
:101acc002306000085060000e806000096050000cd
:101adc00fa0500005d0600000d050000720500000f
:101aec00d705000088040000ee0400005405000037
:101afc00070400006f040000d80400008c030000f1
:101b0c00f6030000610400001803000084030000c9
:101b1c00f1030000ab0200001a030000890300006f
:101b2c0045020000b70200002a030000e901000092
:101b3c005d020000d3020000950100000d020000c0
:101b4c00850200004b010000c601000042020000ab
:101b5c000a0100008901000009020000d500000004
:101b6c0057010000da010000aa0000002f0100005c
:101b7c00b60100008a000000130100009e01000065
:101b8c007500000002010000900100006b000000d5
:101b9c00fc0000008e0100006d000000020100003e
:101bac00980100007a00000013010000ad01000054
:101bbc00930000002f010000cd010000b7000000d1
:101bcc0057010000f8010000e50000008901000049
:101bdc002e0200001f010000c60100006e02000072
:101bec00620100000d020000b8020000b00100000c
:101bfc005d0200000c03000007020000b7020000a9
:101c0c0069030000660200001a030000ce03000006
:101c1c00ce020000840300003b0400003e030000e1
:101c2c00f6030000af040000b50300006f040000d1
:101c3c002a05000031040000ee040000ab05000092
:101c4c00b304000072050000300600003a050000e5
:101c5c00fa050000ba060000c50500008506000064
:101c6c00460700005306000014070000d5070000cb
:101c7c00e2060000a40700006608000073070000dd
:101c8c00350800007c0f0000ff0f0000cb0e000099
:101c9c004e0f0000d10f00009d0e0000200f000021
:101cac00a20f00006f0e0000f10e0000740f000078
:101cbc00400e0000c30e0000450f0000120e000085
:101ccc00940e0000170f0000e30d0000660e0000dc
:101cdc00e90e0000b50d0000380e0000ba0e000031
:101cec00870d0000090e00008c0e0000580d00003e
:101cfc00db0d00005d0e00002a0d0000ac0d000095
:101d0c002f0e0000fb0c00007e0d0000010e0000e9
:101d1c00cd0c0000500d0000d20d00009f0c0000f7
:101d2c00210d0000a40d0000700c0000f30c00004d
:101d3c00760d0000420c0000c40c0000470d0000a2
:101d4c00130c0000960c0000190d0000e50b0000b0
:101d5c00680c0000ea0c0000b70b0000390c000006
:101d6c00bc0c0000880b00000b0c00008e0c00005b
:101d7c005a0b0000dd0b00005f0c00002c0b000068
:101d8c00ae0b0000310c0000fd0a0000800b0000bf
:101d9c00020c0000cf0a0000510b0000d40b000015
:101dac00a00a0000230b0000a60b0000720a000022
:101dbc00f50a0000770b0000440a0000c60a000078
:101dcc00490b0000150a0000980a00001a0b0000cd
:101ddc00e7090000690a0000ec0a0000b8090000dd
:101dec003b0a0000be0a00008a0900000d0a000030
:101dfc008f0a00005c090000de090000610a000087
:101e0c002d090000b0090000320a0000ff08000094
:101e1c0081090000040a0000d008000053090000ea
:101e2c00d6090000a208000025090000a70900003f
:101e3c0074080000f608000079090000450800004d
:101e4c00c80800004b0900001708000099080000a2
:101e5c001c090000e80700006b080000ee080000f9
:101e6c00ba0700003d080000bf0800008c07000006
:101e7c000e080000910800005d070000e00700005c
:101e8c00630800002f070000b207000034080000b0
:101e9c00010700008307000006080000d2060000be
:101eac0055070000d7070000a40600002607000015
:101ebc00a907000075060000f80600007b0700006b
:101ecc0047060000ca0600004c0700001906000077
:101edc009b0600001e070000ea0500006d060000ce
:101eec00ef060000bc0500003e060000c106000025
:101efc008d05000010060000930600005f05000031
:101f0c00e20500006406000031050000b305000086
:101f1c0036060000020500008505000007060000db
:101f2c00d404000056050000d9050000a5040000eb
:101f3c0028050000ab05000077040000fa0400003f
:101f4c007c05000049040000cb0400004e05000095
:101f5c001a0400009d04000020050000ec030000a2
:101f6c006e040000f1040000bd03000040040000fa
:101f7c00c30400008f03000012040000940400004e
:101f8c0061030000e303000066040000320300005c
:101f9c00b5030000380400000403000087030000b0
:101fac0009040000d602000058030000db03000007
:101fbc00a70200002a030000ac0300007902000015
:101fcc00fb0200007e0300004a020000cd0200006c
:101fdc00500300001c0200009f02000021030000bf
:101fec00ee01000070020000f3020000bf010000cf
:101ffc0042020000c4020000910100001302000024
:10200c009602000062010000e50100006802000079
:10201c0034010000b7010000390200000601000085
:10202c00880100000b020000d70000005a010000dc
:10203c00dc010000a90000002b010000ae01000033
:10204c007a0000007c0f0000ff0f0000cb0e000098
:10205c004e0f0000d10f00009d0e0000200f00005d
:10206c00a20f00006f0e0000f10e0000740f0000b4
:10207c00400e0000c30e0000450f0000120e0000c1
:10208c00940e0000170f0000e30d0000660e000018
:10209c00e90e0000b50d0000380e0000ba0e00006d
:1020ac00870d0000090e00008c0e0000580d00007a
:1020bc00db0d00005d0e00002a0d0000ac0d0000d1
:1020cc002f0e0000fb0c00007e0d0000010e000026
:1020dc00cd0c0000500d0000d20d00009f0c000034
:1020ec00210d0000a40d0000700c0000f30c00008a
:1020fc00760d0000420c0000c40c0000470d0000df
:10210c00130c0000960c0000190d0000e50b0000ec
:10211c00680c0000ea0c0000b70b0000390c000042
:10212c00bc0c0000880b00000b0c00008e0c000097
:10213c005a0b0000dd0b00005f0c00002c0b0000a4
:10214c00ae0b0000310c0000fd0a0000800b0000fb
:10215c00020c0000cf0a0000510b0000d40b000051
:10216c00a00a0000230b0000a60b0000720a00005e
:10217c00f50a0000770b0000440a0000c60a0000b4
:10218c00490b0000150a0000980a00001a0b000009
:10219c00e7090000690a0000ec0a0000b809000019
:1021ac003b0a0000be0a00008a0900000d0a00006c
:1021bc008f0a00005c090000de090000610a0000c3
:1021cc002d090000b0090000320a0000ff080000d1
:1021dc0081090000040a0000d00800005309000027
:1021ec00d6090000a208000025090000a70900007c
:1021fc0074080000f608000079090000450800008a
:10220c00c80800004b0900001708000099080000de
:10221c001c090000e80700006b080000ee08000035
:10222c00ba0700003d080000bf0800008c07000042
:10223c000e080000910800005d070000e007000098
:10224c00630800002f070000b207000034080000ec
:10225c00010700008307000006080000d2060000fa
:10226c0055070000d7070000a40600002607000051
:10227c00a907000075060000f80600007b070000a7
:10228c0047060000ca0600004c07000019060000b3
:10229c009b0600001e070000ea0500006d0600000a
:1022ac00ef060000bc0500003e060000c106000061
:1022bc008d05000010060000930600005f0500006d
:1022cc00e20500006406000031050000b3050000c3
:1022dc003606000002050000850500000706000018
:1022ec00d404000056050000d9050000a504000028
:1022fc0028050000ab05000077040000fa0400007c
:10230c007c05000049040000cb0400004e050000d1
:10231c001a0400009d04000020050000ec030000de
:10232c006e040000f1040000bd0300004004000036
:10233c00c30400008f03000012040000940400008a
:10234c0061030000e3030000660400003203000098
:10235c00b5030000380400000403000087030000ec
:10236c0009040000d602000058030000db03000043
:10237c00a70200002a030000ac0300007902000051
:10238c00fb0200007e0300004a020000cd020000a8
:10239c00500300001c0200009f02000021030000fb
:1023ac00ee01000070020000f3020000bf0100000b
:1023bc0042020000c4020000910100001302000060
:1023cc009602000062010000e501000068020000b6
:1023dc0034010000b70100003902000006010000c2
:1023ec00880100000b020000d70000005a01000019
:1023fc00dc010000a90000002b010000ae01000070
:10240c007a0000007c0f0000fc0000008e01000030
:10241c006b000000fc0000008e0100006b0000004f
:10242c00fc0000008e0100006b000000fc000000ae
:10243c008e0100006b000000fc0000008e0100000b
:10244c006b000000fc0000008e0100006b0000001f
:10245c00fc0000008e0100006b000000fc0000007e
:10246c008e0100006b000000fc0000008e010000db
:10247c006b000000fc0000008e0100006b000000ef
:10248c00fc0000008e0100006b000000fc0000004e
:10249c008e0100006b000000fc0000008e010000ab
:1024ac006b000000fc0000008e0100006b000000bf
:1024bc00fc0000008e0100006b000000fc0000001e
:1024cc008e0100006b000000fc0000008e0100007b
:1024dc006b000000fc0000008e0100006b0000008f
:1024ec00fc0000008e0100006b000000fc000000ee
:1024fc008e0100006b000000fc0000008e0100004b
:10250c006b000000fc0000008e0100006b0000005e
:10251c00fc0000008e0100006b000000fc000000bd
:10252c008e0100006b000000fc0000008e0100001a
:10253c006b000000fc0000008e0100006b0000002e
:10254c00fc0000008e0100006b000000fc0000008d
:10255c008e0100006b000000fc0000008e010000ea
:10256c006b000000fc0000008e0100006b000000fe
:10257c00fc0000008e0100006b000000fc0000005d
:10258c008e0100006b000000fc0000008e010000ba
:10259c006b000000fc0000008e0100006b000000ce
:1025ac00fc0000008e0100006b000000fc0000002d
:1025bc008e0100006b000000fc0000008e0100008a
:1025cc006b000000fc0000008e0100006b0000009e
:1025dc00fc0000008e0100006b000000fc000000fd
:1025ec008e0100006b0000006d0f0000ff0f00005b
:1025fc00dc0e00006d0f0000ff0f0000dc0e000071
:10260c006d0f0000ff0f0000dc0e00006d0f0000ce
:10261c00ff0f0000dc0e00006d0f0000ff0f00002c
:10262c00dc0e00006d0f0000ff0f0000dc0e000040
:10263c006d0f0000ff0f0000dc0e00006d0f00009e
:10264c00ff0f0000dc0e00006d0f0000ff0f0000fc
:10265c00dc0e00006d0f0000ff0f0000dc0e000010
:10266c006d0f0000ff0f0000dc0e00006d0f00006e
:10267c00ff0f0000dc0e00006d0f0000ff0f0000cc
:10268c00dc0e00006d0f0000ff0f0000dc0e0000e0
:10269c006d0f0000ff0f0000dc0e00006d0f00003e
:1026ac00ff0f0000dc0e00006d0f0000ff0f00009c
:1026bc00dc0e00006d0f0000ff0f0000dc0e0000b0
:1026cc006d0f0000ff0f0000dc0e00006d0f00000e
:1026dc00ff0f0000dc0e00006d0f0000ff0f00006c
:1026ec00dc0e00006d0f0000ff0f0000dc0e000080
:1026fc006d0f0000ff0f0000dc0e00006d0f0000de
:10270c00ff0f0000dc0e00006d0f0000ff0f00003b
:10271c00dc0e00006d0f0000ff0f0000dc0e00004f
:10272c006d0f0000ff0f0000dc0e00006d0f0000ad
:10273c00ff0f0000dc0e00006d0f0000ff0f00000b
:10274c00dc0e00006d0f0000ff0f0000dc0e00001f
:10275c006d0f0000ff0f0000dc0e00006d0f00007d
:10276c00ff0f0000dc0e00006d0f0000ff0f0000db
:10277c00dc0e00006d0f0000ff0f0000dc0e0000ef
:10278c006d0f0000ff0f0000dc0e00006d0f00004d
:10279c00ff0f0000dc0e00006d0f0000ff0f0000ab
:1027ac00dc0e00006d0f0000ff0f0000dc0e0000bf
:1027bc006d0f0000ff0f0000dc0e00006d0f00001d
:1027cc00ff0f0000dc0e0000fc0000008e0100007a
:1027dc006b000000fc0000008e0100006b0000008c
:1027ec00fc0000008e0100006b000000fc000000eb
:1027fc008e0100006b000000fc0000008e01000048
:10280c006b000000fc0000008e0100006b0000005b
:10281c00fc0000008e0100006b000000fc000000ba
:10282c008e0100006b000000fc0000008e01000017
:10283c006b000000fc0000008e0100006b0000002b
:10284c00fc0000008e0100006b000000fc0000008a
:10285c008e0100006b000000fc0000008e010000e7
:10286c006b000000fc0000008e0100006b000000fb
:10287c00fc0000008e0100006b000000fc0000005a
:10288c008e0100006b000000fc0000008e010000b7
:10289c006b000000fc0000008e0100006b000000cb
:1028ac00fc0000008e0100006b000000fc0000002a
:1028bc008e0100006b000000fc0000008e01000087
:1028cc006b000000fc0000008e0100006b0000009b
:1028dc00fc0000008e0100006b000000fc000000fa
:1028ec008e0100006b000000fc0000008e01000057
:1028fc006b000000fc0000008e0100006b0000006b
:10290c00fc0000008e0100006b000000fc000000c9
:10291c008e0100006b000000fc0000008e01000026
:10292c006b000000fc0000008e0100006b0000003a
:10293c00fc0000008e0100006b000000fc00000099
:10294c008e0100006b000000fc0000008e010000f6
:10295c006b000000fc0000008e0100006b0000000a
:10296c00fc0000008e0100006b000000fc00000069
:10297c008e0100006b000000fc0000008e010000c6
:10298c006b000000fc0000008e0100006b000000da
:10299c00fc0000008e0100006b000000fc00000039
:1029ac008e0100006b0000006d0f0000ff0f000097
:1029bc00dc0e00006d0f0000ff0f0000dc0e0000ad
:1029cc006d0f0000ff0f0000dc0e00006d0f00000b
:1029dc00ff0f0000dc0e00006d0f0000ff0f000069
:1029ec00dc0e00006d0f0000ff0f0000dc0e00007d
:1029fc006d0f0000ff0f0000dc0e00006d0f0000db
:102a0c00ff0f0000dc0e00006d0f0000ff0f000038
:102a1c00dc0e00006d0f0000ff0f0000dc0e00004c
:102a2c006d0f0000ff0f0000dc0e00006d0f0000aa
:102a3c00ff0f0000dc0e00006d0f0000ff0f000008
:102a4c00dc0e00006d0f0000ff0f0000dc0e00001c
:102a5c006d0f0000ff0f0000dc0e00006d0f00007a
:102a6c00ff0f0000dc0e00006d0f0000ff0f0000d8
:102a7c00dc0e00006d0f0000ff0f0000dc0e0000ec
:102a8c006d0f0000ff0f0000dc0e00006d0f00004a
:102a9c00ff0f0000dc0e00006d0f0000ff0f0000a8
:102aac00dc0e00006d0f0000ff0f0000dc0e0000bc
:102abc006d0f0000ff0f0000dc0e00006d0f00001a
:102acc00ff0f0000dc0e00006d0f0000ff0f000078
:102adc00dc0e00006d0f0000ff0f0000dc0e00008c
:102aec006d0f0000ff0f0000dc0e00006d0f0000ea
:102afc00ff0f0000dc0e00006d0f0000ff0f000048
:102b0c00dc0e00006d0f0000ff0f0000dc0e00005b
:102b1c006d0f0000ff0f0000dc0e00006d0f0000b9
:102b2c00ff0f0000dc0e00006d0f0000ff0f000017
:102b3c00dc0e00006d0f0000ff0f0000dc0e00002b
:102b4c006d0f0000ff0f0000dc0e00006d0f000089
:102b5c00ff0f0000dc0e00006d0f0000ff0f0000e7
:102b6c00dc0e00006d0f0000ff0f0000dc0e0000fb
:102b7c006d0f0000ff0f0000dc0e00006d0f000059
:0c2b8c00ff0f0000dc0e0000fc00000049
:020000040000fa
:102b98000a00fa00e80047008008780090952d00a8
:102ba80001402300008fbe0010002000e80047000d
:102bb8009100780001017800110009000280d80016
:102bc8008000eb008ef607001e01be00a3f607008a
:102bd8000268290083b124006df807000200200074
:102be800030024008bf707000200200003002400e4
:102bf8009af60700640147000089be006400470098
:102c08001000be0063f6070000007800201088005e
:102c180007e2a8000080fa00000006000000fa00a1
:102c28000602a8000000000030108000610060006b
:102c38000000e000fcff3a000080fa0000000600f7
:102c48000000fa000622a8000000000030108000f2
:102c5800620060000000e000fcff3a000080fa001b
:102c6800000006000000fa000642a800000000006c
:102c780030108000640060000000e000fcff3a00b3
:102c88000080fa00000006000200fa00004f7800f9
:102c98000e00e800014878009e80fb00e00f20004d
:102ca800808060000e00e800104078000080fb0083
:102cb8006100600001007000101088000000000032
:102cc8004110800000002400008060000000e00047
:102cd800fbff3a000080fa00000006000200fa003c
:102ce800004f78001e80fb001010880000000000d4
:102cf8004110800000002400008060000000e00017
:102d0800fbff3a000080fa00000006000200fa000b
:102d1800400620009eff07000040eb00004f7800af
:102d28001e80fb0080004000a02029000080400099
:102d3800100078004800de00004078006f40600016
:102d480000e8b7001e80fb0080004000a02029009a
:102d580000804000100078000040780001e8b700cb
:102d6800aeff07008040eb0000ccb300c6ff0700b1
:102d780000c8bf00d9ff070001c8bf00d7ff070080
:102d8800b8ff0700801a2600010020000200070093
:082d98001e4fe800e2ff3700c6
:020000040000fa
:102da000f03fb1000180b10006003500ee030900dc
:102db00000000000403fb1000180b100fbff3d007a
:102dc0001000b000203fb000020035000080090074
:082dd0000000000000000600f5
:020000040000fa
:102dd80000080000020000000000000002080000d7
:0c2de800020000000000000000000000dd
:020000040000fa
:0200000401f009
:04000000ffffff00ff
:020000040000fa
:0200000401f009
:04000800ffffff00f7
:020000040000fa
:0200000401f009
:04000c00820000006e
:020000040000fa
:0200000401f009
:04001000a500000047
:020000040000fa
:0200000401f009
:040014005f00000089
:020000040000fa
:0200000401f009
:04001800f7000000ed
:020000040000fa
:0200000401f009
:04001c00dfff000002
:00000001FF
