:020000040000fa
:080000000002040000000000f2
:020000040000fa
:04000800dc02000016
:020000040000fa
:04000c00dc02000012
:020000040000fa
:04001000dc0200000e
:020000040000fa
:04001400dc0200000a
:020000040000fa
:04001800dc02000006
:020000040000fa
:04001c00dc02000002
:020000040000fa
:04002000dc020000fe
:020000040000fa
:04002400dc020000fa
:020000040000fa
:04002800dc020000f6
:020000040000fa
:04002c00dc020000f2
:020000040000fa
:04003000dc020000ee
:020000040000fa
:04003400dc020000ea
:020000040000fa
:04003800dc020000e6
:020000040000fa
:04003c00dc020000e2
:020000040000fa
:04004000dc020000de
:020000040000fa
:04004400dc020000da
:020000040000fa
:04004800dc020000d6
:020000040000fa
:04004c00dc020000d2
:020000040000fa
:04005000dc020000ce
:020000040000fa
:04005400dc020000ca
:020000040000fa
:04005800dc020000c6
:020000040000fa
:04005c00dc020000c2
:020000040000fa
:04006000dc020000be
:020000040000fa
:04006400dc020000ba
:020000040000fa
:04006800dc020000b6
:020000040000fa
:04006c00dc020000b2
:020000040000fa
:04007000dc020000ae
:020000040000fa
:04007400dc020000aa
:020000040000fa
:04007800dc020000a6
:020000040000fa
:04007c00dc020000a2
:020000040000fa
:04008000dc0200009e
:020000040000fa
:04008400dc0200009a
:020000040000fa
:04008800dc02000096
:020000040000fa
:04008c00dc02000092
:020000040000fa
:04009000dc0200008e
:020000040000fa
:04009400dc0200008a
:020000040000fa
:04009800dc02000086
:020000040000fa
:04009c00dc02000082
:020000040000fa
:0400a000dc0200007e
:020000040000fa
:0400a400dc0200007a
:020000040000fa
:0400a800dc02000076
:020000040000fa
:0400ac00dc02000072
:020000040000fa
:0400b000dc0200006e
:020000040000fa
:0400b400dc0200006a
:020000040000fa
:0400b800dc02000066
:020000040000fa
:0400bc00dc02000062
:020000040000fa
:0400c000dc0200005e
:020000040000fa
:0400c400dc0200005a
:020000040000fa
:0400c800dc02000056
:020000040000fa
:0400cc00dc02000052
:020000040000fa
:0400d000dc0200004e
:020000040000fa
:0400d400dc0200004a
:020000040000fa
:0400d800dc02000046
:020000040000fa
:0400dc00dc02000042
:020000040000fa
:0400e000dc0200003e
:020000040000fa
:0400e400dc0200003a
:020000040000fa
:0400e800dc02000036
:020000040000fa
:0400ec00dc02000032
:020000040000fa
:0400f000dc0200002e
:020000040000fa
:0400f400dc0200002a
:020000040000fa
:0400f800dc02000026
:020000040000fa
:0400fc00dc02000022
:020000040000fa
:04010000dc0200001d
:020000040000fa
:04010400dc02000019
:020000040000fa
:04010800dc02000015
:020000040000fa
:04010c00dc02000011
:020000040000fa
:04011000dc0200000d
:020000040000fa
:04011400dc02000009
:020000040000fa
:04011800dc02000005
:020000040000fa
:04011c00dc02000001
:020000040000fa
:04012000dc020000fd
:020000040000fa
:04012400dc020000f9
:020000040000fa
:04012800dc020000f5
:020000040000fa
:04012c00dc020000f1
:020000040000fa
:04013000dc020000ed
:020000040000fa
:04013400dc020000e9
:020000040000fa
:04013800dc020000e5
:020000040000fa
:04013c00dc020000e1
:020000040000fa
:04014000dc020000dd
:020000040000fa
:04014400dc020000d9
:020000040000fa
:04014800dc020000d5
:020000040000fa
:04014c00dc020000d1
:020000040000fa
:04015000dc020000cd
:020000040000fa
:04020800dc02000014
:020000040000fa
:04020c00dc02000010
:020000040000fa
:04021000dc0200000c
:020000040000fa
:04021400dc02000008
:020000040000fa
:04021800dc02000004
:020000040000fa
:04021c00dc02000000
:020000040000fa
:04022000dc020000fc
:020000040000fa
:04022400dc020000f8
:020000040000fa
:04022800dc020000f4
:020000040000fa
:04022c00dc020000f0
:020000040000fa
:04023000dc020000ec
:020000040000fa
:04023400dc020000e8
:020000040000fa
:04023800dc020000e4
:020000040000fa
:04023c00dc020000e0
:020000040000fa
:04024000dc020000dc
:020000040000fa
:04024400dc020000d8
:020000040000fa
:04024800dc020000d4
:020000040000fa
:04024c00dc020000d0
:020000040000fa
:04025000dc020000cc
:020000040000fa
:04025400dc020000c8
:020000040000fa
:04025800dc020000c4
:020000040000fa
:04025c00dc020000c0
:020000040000fa
:04026000dc020000bc
:020000040000fa
:04026400dc020000b8
:020000040000fa
:04026800dc020000b4
:020000040000fa
:04026c00dc020000b0
:020000040000fa
:04027000dc020000ac
:020000040000fa
:04027400dc020000a8
:020000040000fa
:04027800dc020000a4
:020000040000fa
:04027c00dc020000a0
:020000040000fa
:04028000dc0200009c
:020000040000fa
:04028400dc02000098
:020000040000fa
:04028800dc02000094
:020000040000fa
:04028c00dc02000090
:020000040000fa
:04029000dc0200008c
:020000040000fa
:04029400dc02000088
:020000040000fa
:04029800dc02000084
:020000040000fa
:04029c00dc02000080
:020000040000fa
:0402a000dc0200007c
:020000040000fa
:0402a400dc02000078
:020000040000fa
:0402a800dc02000074
:020000040000fa
:0402ac00dc02000070
:020000040000fa
:0402b000dc0200006c
:020000040000fa
:0402b400dc02000068
:020000040000fa
:0402b800dc02000064
:020000040000fa
:0402bc00dc02000060
:020000040000fa
:0402c000dc0200005c
:020000040000fa
:0402c400dc02000058
:020000040000fa
:0402c800dc02000054
:020000040000fa
:0402cc00dc02000050
:020000040000fa
:0402d000dc0200004c
:020000040000fa
:0402d400dc02000048
:020000040000fa
:0402d800dc02000044
:020000040000fa
:0402dc00dc02000040
:020000040000fa
:0402e000dc0200003c
:020000040000fa
:0402e400dc02000038
:020000040000fa
:0402e800dc02000034
:020000040000fa
:0402ec00dc02000030
:020000040000fa
:0402f000dc0200002c
:020000040000fa
:0402f400dc02000028
:020000040000fa
:0402f800dc02000024
:020000040000fa
:0402fc00dc02000020
:020000040000fa
:04030000dc0200001b
:020000040000fa
:04030400dc02000017
:020000040000fa
:04030800dc02000013
:020000040000fa
:04030c00dc0200000f
:020000040000fa
:04031000dc0200000b
:020000040000fa
:04031400dc02000007
:020000040000fa
:04031800dc02000003
:020000040000fa
:04031c00dc020000ff
:020000040000fa
:04032000dc020000fb
:020000040000fa
:04032400dc020000f7
:020000040000fa
:04032800dc020000f3
:020000040000fa
:04032c00dc020000ef
:020000040000fa
:04033000dc020000eb
:020000040000fa
:04033400dc020000e7
:020000040000fa
:04033800dc020000e3
:020000040000fa
:04033c00dc020000df
:020000040000fa
:04034000dc020000db
:020000040000fa
:04034400dc020000d7
:020000040000fa
:04034800dc020000d3
:020000040000fa
:04034c00dc020000cf
:020000040000fa
:04035000dc020000cb
:020000040000fa
:100400004f8620000eff20000e0188000000000033
:10041000000020000000e000020032000001200087
:100420002002880014000700b00007000000e00070
:1004300003003a0020c6200001002000020037001f
:100440000000200001002000810f70000100320038
:1004500014000700000020000000e000020032004d
:100460000000020000000000e00c0200000000009c
:100470000040da000000fe004440a9008003200094
:100480000000e0000300320000002000a00188000e
:100490004440a800000006008a1f78008b1f7800e7
:1004a0000000060091018800800478000000eb0045
:1004b0001a003700e284440032a0b4009905ba0063
:1004c000e284440032a0b4009906ba00e2844400f9
:1004d00032a0b4000006eb00476fde00fd07b2005b
:1004e000636ce10003003a00ebff07000000eb0043
:1004f0000a003700606ce10004003a00005deb0088
:100500008b05e900fdff3e00040037006168e10053
:10051000010032000086eb000b00070019c7ba008b
:100520001905ba000e04e00003003a000a00e000da
:10053000e0ff3a0000000600fe07b2009e018800be
:100540008a047800f5ff3700395dba008b05e900b1
:100550000c003200295dba008b05e900080032006a
:100560000c00e00003003a00e284440032a0b40032
:10057000f5ff370019ddba008b05e900faff3a00f4
:100580008904e800e184440032a0b40000000600c1
:10059000000000000000000000000000000000005b
:1005a000000000000000000000000000000000004b
:1005b00000000000000000000040da000000fe0023
:1005c0000a00fa0011002000b1bf9f00c0bf9f00c9
:1005d0006a805700610407004fb897000080fa0056
:1005e000000006000a00fa00e20f500034003e004e
:1005f00010438000e10f500003003200e20f500072
:1006000011003a000c003700032220000300e00034
:1006100001003a000040da002002e200020035004a
:100620002822ef0021e2a8002342ab000d003a008f
:100630002342a8000b003700030020000300e00065
:1006400001003a000040da000000e200020035003c
:100650000020ef0001e0a8000140ab0001003a00db
:100660000140a800820178000b0037003102fb0036
:10067000e10f500004003a002322ab00feff3a00d5
:1006800024118800030037000120ab00feff3a0070
:10069000040088008301e9000300e000f3ff3a0052
:1006a000e10f500003003a002302ab00feff3200ce
:1006b0000b0037000100ab00feff320008003700de
:1006c00033002000b3bf9f00c0bf9f00d1bf9f0079
:1006d000e2bf9f006a805700220407006fb99700ad
:1006e000020078000080fa0000000600000005000b
:1006f0000000fa0068815700cfb8970000408000e2
:1007000010007800340007000080fa0000000600a6
:10071000070037000000060060802000000006008f
:10072000fdff070020408800104088000000060000
:10073000ea874700889fbe008a9fbe008e1f780010
:1007400000047800030078007287570084e22600d6
:1007500055c72600049fbe00c3962200030f7800f1
:100760006c875700004feb0011059000a10490002a
:10077000910578000200e0000200320002077800d4
:1007800001003700728757000000e00002003a00c5
:100790000e007800190307000a00e000030035008e
:1007a0008a0f5000010036000a0078000b02780022
:1007b00089017800000178008e0078000800780038
:1007c000430007004f0778004f05be004f04be00ee
:1007d000af00b100000006000200fa00881f780098
:1007e00000047800e2bf9f00648157000800780091
:1007f000f6010700980090000148a30001003200b4
:100800000080eb004f0478000080fa000000060032
:10081000889fbe00000478004800900082047800a1
:10082000808f5400010036008004780009017800b0
:100830005800900086020700580090000900400010
:1008400050049800c8009000898450004904980022
:100850000048eb004f04be000000060010007800c6
:1008600060ff3700900190000388a3000100320070
:10087000e7ff37000348a30001003a00f7ff070035
:1008800000000600889fbe00000478004800900029
:1008900082047800808f54000100360080047800c4
:1008a0000901780058009000690207005800900084
:1008b0000900400050049800c8009000898450004e
:1008c000490498000048eb004f04be0000000600f9
:1008d000f2874700889fbe008a9fbe008c9fbe00a3
:1008e0008e1f7800800478000105780002047800eb
:1008f000830578006107620002003a008b0f540004
:1009000008003900080178008a00780009007800a2
:10091000d4ff07008b0f54000200390088057800cf
:100920001e003700088655000c017800f00f5600b5
:100930000100360002012000010220007e805700e5
:100940004a0207008c0678000500370002012000eb
:10095000fe80570009007800c2ff0700f0865600ad
:10096000ef8f5600f9ff3e004461de0000ff2f00cc
:100970000091b90002014600fe805700090078008e
:10098000b8ff07000e00e00004003a0008017800fc
:100990008a00780009007800b2ff07000b00780099
:1009a0004f0778004f06be004f05be004f04be0043
:1009b0002f01b10000000600000005000000050046
:1009c00000000500000178000040eb008080fb0083
:1009d00081804000a384200063c278000404e0000a
:1009e00003003a00b084200060c0780000000600d8
:1009f00092017800934f520004003a00b084200026
:100a000060c078000309e800010037000040e800fa
:100a1000ea4f5000edff360000000600f687470061
:100a2000889fbe008a9fbe008c9fbe008e1f7800ec
:100a3000000578000104780083057800040678003a
:100a40000000eb00c0b79f008080eb00d1b79f0093
:100a5000e0b79f00f2b79f000008200080bf9f0012
:100a600098007800010078008004eb000100370056
:100a70008904e800304178000204e00003003200fd
:100a800053c2b300834f5100f9ff3a000900e00060
:100a900004003200090178000a00780071ff0700a5
:100aa000188c44001807780050c2b3009e4f100005
:100ab0003f013a000e07e8000e0c780010003700e6
:100ac000cfb097000100a0000b003700cfb0970017
:100ad0000110a00008003700cfb097000120a0004f
:100ae00005003700cfb097000130a00002003700aa
:100af000cfb097000140a000c1b79f00000ce800f4
:100b00001800780090407800b2c2b30082cf500045
:100b1000f1ff320007003c0002c2b30082cf500058
:100b2000f0ff320032c2b30082cf500007003a001b
:100b3000efff3700d2c2b30082cf5000e0ff320097
:100b400002c3b30082cf5000e0ff3200a2c2b30064
:100b500082cf50000d003a00000ce8001c80e90034
:100b6000000e780010007800e0b79f000000e00061
:100b70000f003d00cfb097000100a200c1b79f0059
:100b80000000ea00e0b79f00090037008401070079
:100b9000e0b79f0001003700000ce8001800780063
:100ba0009000fb000103b100e98f5000faff36000e
:100bb0004fb097000008a300020032000010a1000f
:100bc000c0b79f0018007800e1c2b30090cf1000ba
:100bd00016003a008000eb00d1b79f000000e8004b
:100be000000c7800a1c2b30090cf100006003a00bc
:100bf000000ce8001c80e900000e7800100078006e
:100c0000d0b79f000900370065010700d0b79f00eb
:100c100001003700000ce800180078009000fb008d
:100c20000103b100e98f5000faff36000800780098
:100c300064ff070080467800180078001000fb0071
:100c40001002070091062000810f5000380032008a
:100c500012003c0041062000810f50003400320099
:100c60000a003c0011062000810f500020003200d5
:100c700031062000810f5000a000320051022000f8
:100c8000810f5000bc003a00b4003700710620000c
:100c9000810f5000b8003c00880037000107200099
:100ca000810f50005c00320007003c00e10620008c
:100cb000810f50007a003200f1062000810f5000b1
:100cc000ad003a003900370051072000810f500075
:100cd0002700320081072000810f500042003200bf
:100ce00031072000810f5000a3003a008f00370029
:100cf0008d80fb000c01780000fe2f000f004000eb
:100d0000eb0107000000e000a800320018007800a6
:100d1000000ce8009041780002fe2f000f01410016
:100d2000f88057000a00780024ff07000e00370003
:100d30008d80fb008c0178001200200000fe2f0047
:100d40000f004000f90107000000e00097003200aa
:100d5000180ce80002fe2f000f014100f880570038
:100d60000a00780014ff07008084440090003700d8
:100d70008d80fb008c0178000001eb0000fe2f004d
:100d80000f004000e90107000000e000870032008a
:100d9000180ce80002fe2f000f014100f8805700f8
:100da0000a00780004ff0700efff37008d80fb008a
:100db0008c0178000001eb0000fe2f000f004000c6
:100dc000da0107000000e00078003200180ce800ab
:100dd00002fe2f000f014100f88057000a00780042
:100de000f5fe0700e0ff37008d80fb008c017800e6
:100df0000001eb0000fe2f000f004000cb010700b8
:100e00000000e0006900320018007800000ce800e3
:100e1000904178001c0037008c0178000001eb0045
:100e2000010f200000fe2f000f004000bf0107004f
:100e30000000e0005d003200180ce8000fb09700e1
:100e40009fb097002fb19700bfb19700e00f5000ff
:100e5000e08f5800e00f5900e08f590009003a0078
:100e6000cfb597006fb4970020842000630107007e
:100e70000b027800880178000001780021842000ae
:100e80004700370083c7b30002fe2f000f01410067
:100e9000f88057000a007800c8fe0700b2ff37004c
:100ea0000b8144008d80fb008c01780000fe2f0038
:100eb0000f004000f10107003c0037008d80fb006f
:100ec0000c01780000fe2f000f00400078010700a1
:100ed0000000e0003500320018007800000ce80047
:100ee0009041780002fe2f000f014100f88057006a
:100ef0000a007800b1fe07009bff370000c8b3006e
:100f000080cf560029003a00180ce8001c80e90048
:100f1000000e780010407800e0df9f0013002000f2
:100f2000e2fd2f000f0141000800370000c8b300a8
:100f300080cf56001d003a00180ce8001c80e90024
:100f4000000e78008001eb0010017800f880570057
:100f50000a007800f6fd070083ff370000c8b300e1
:100f600080cf560011003a00180ce8004fb29700ed
:100f7000efb19700080037000e0c78000000eb007e
:100f8000c0b79f00e0b79f000080eb00d0b79f0084
:100f90000002eb0084017800120020008184200010
:100fa0000a0078004afe07006fff3700180ce800bf
:100fb000090078004f0778004f06be004f05be00bd
:100fc0004f04be006f01b100000006008200fa006d
:100fd000889fbe008a1f7800000578008204780090
:100fe000c13f9f000004eb001000370009027800a9
:100ff00088017800a2f72f000f01410081f72f0030
:101000008f8040000a00780084fe0700080040003e
:10101000880f500004003d00b00420000043880009
:101020000084eb0004003700000478004f3897007c
:101030001004e000edff3a00080078004f0578004a
:101040004f04be000080fa0000000600889fbe002a
:101050000004be000000eb000800e00018003200b1
:10106000180090000058a3000d003200d800900036
:1010700068009000808f500009003600b809900089
:101080000001eb00820078000800780003000100f6
:10109000d80090000080eb000100e0000800320062
:1010a0000000eb00200c98006004980050049800a9
:1010b0000900e000020032001800780040fd07003f
:1010c0004f04be0000000600889fbe000004be0062
:1010d0000000eb000800e00025003200180090003e
:1010e0000058a30011003200d80090006800900062
:1010f000808f500009003600b80990000001eb0015
:10110000820078000800780003000100d8009000f9
:101110000080eb000100e000150032000000eb0051
:10112000200c98006004980050049800780a900001
:1011300008109000800f520006003100000252009b
:1011400011002000cfa2de00612bb900180078004a
:10115000390007000000eb0000149800700c9800a4
:101160000900e000020032001800780014fd0700ba
:101170004f04be0000000600800078001000200030
:1011800002022000828f500004003200e9805000eb
:10119000e48f5000010036000000eb000000060064
:1011a000889fbe008a1f7800000578000a04780036
:1011b000984478000805e8000900fb00eeff0700ee
:1011c0000000e000f9ff3a00b0c2b30080cf540045
:1011d00005003200d0c2b3008000eb0080cf540085
:1011e00005003a00020037008000eb0001003700e4
:1011f000110020000804e8000000eb0003003700a5
:101200006a02b900020052000003b0003801fb007e
:1012100003fd2f0082814100e98f5100f8ff360065
:101220000100e00001003a000000ea004f057800ec
:101230004f04be0000000600a0fd2f00f1ff2f00ac
:10124000860007004f89de0082017800000006005a
:101250008001780002003700b15978000201e900ee
:101260000200e000fcff3a0000000600889fbe007c
:101270008a9fbe00800478000200e0005b0032001c
:1012800001407800814c780082814400f1f99f0090
:10129000e20f51005500360091449800a144980097
:1012a000e1f99f00d1f99f00e60f51004f00360091
:1012b000b1449800c1f99f00e80f51004b0036007f
:1012c0000905ea00630565000a8444000a05510027
:1012d000c1ff2f00010565000080fb008000eb00ce
:1012e000121020001310200054010700008cbe00d3
:1012f0000a01440060b99f0071b99f00e80f5500d2
:101300003a00360020049800310498004004980008
:101310005104980020b99f0031b99f0040b99f0047
:1013200051b99f00f80f5500300036006004980056
:1013300071049800000c9800110c9800200c980083
:10134000310c9800400c9800510c980020b19f007f
:1013500031b19f0040b19f0051b19f0060b19f002b
:1013600071b19f0000b99f0011b99f006401640032
:101370007801410002044400020555006011b800e4
:101380000203be000002be000403be006022b800db
:10139000000072008180720002017300838173007b
:1013a00010003700009cbe000294be00400498006c
:1013b000510498006204980073049800000c98008f
:1013c000110c9800220c9800330c9800400c9800e7
:1013d000510c9800620c9800730c98000a02b1003e
:1013e0000802b000ff0f5500eeff3e000900780034
:1013f0004f05be004f04be000000060080007800cc
:10140000040037003104e00002003a0000005100ff
:1014100000000600010178000108a300f9ff3a006e
:101420008101780031017800f4ef2f0002024200c0
:101430000281ea0002016200040828000401610040
:10144000f7ff320083007800010178003104e000ea
:10145000fdff3a00000051000000060002002f00ce
:10146000f3ff2f00820f5000838f580004003600d6
:101470000000ea00004388000080eb008080eb0061
:1014800000000600f1fb2f0080804000f98f500023
:1014900001003e000050a00000000600f9ff3700e8
:1014a000000006009efc0700fdff0700fcff370060
:1014b000881f78000004780000082000808f50000a
:1014c0001700350010082000808f50000b003400fa
:1014d00030082000808f500011003a009200780000
:1014e00068805000000978003002be002003be0072
:1014f000049cbe000694be000700370092027800ec
:1015000064805200000978001000be0097000700b8
:10151000009cbe000294be001000200001003700b5
:101520000000eb004f047800000006008408200053
:10153000848f50001d0032000d003c001408200074
:10154000848f50002700320002003c000408200075
:101550000400370024082000848f5000340032003b
:1015600044082000848f500043003a0036003700c2
:10157000040a2000848f50002700320004003c0041
:1015800004092000848f50003b003a0028003700f7
:10159000020c2000828f50002f003200020f20002a
:1015a000828f500034003a002b0037009380e9000e
:1015b0000200e00005003200810978001102fb0002
:1015c000cfa2de00612bb900280037008109780026
:1015d000114278000482fb008002eb006033b80007
:1015e0002200370013027800e40052000200e000fd
:1015f00005003200810978001102be004fabde0009
:101600008603780019003700810978001102be00b6
:101610006033b800150037009380e9008109780035
:1016200011027800cfa2de00612bb9000f00370055
:1016300093027800e8805200810978003102be00f0
:101640002103be00090037009380e9000200e0009a
:1016500002003200f1ff37009380e9008109780031
:10166000110278008002eb006033b8000498be00dd
:101670000690be0010000500000005004408200090
:10168000848f50002500320008003c001408200020
:10169000848f50001400320024082000848f5000f2
:1016a00024003200040820000c0037000409200048
:1016b000848f50001f00320004003c00840820008a
:1016c000848f500024003a000e003700040a2000e6
:1016d000848f500011003200040c2000848f5000d1
:1016e0001d003a000d0037009380e9008109780061
:1016f0009100780001087800cf91de008288be005a
:10170000140037009380e900810978009100780087
:1017100001087800824878000e0037009380e900c5
:10172000810978009100780001087800820878002b
:10173000080037009380e900810978009100780063
:10174000010878006112b900612bb9008498be00cd
:101750008690be00100005000000050000c0da0001
:101760000000060000c0da000000060081037800d7
:101770001d0007000001be006000b8000478a3004f
:1017800013003a006220e10015003e000d00390010
:101790008301d1000281d3008180d3008301d10075
:1017a0000281d3008180d3008301d1000281d30064
:1017b0008180d3000538b000c42add00f300b200f8
:1017c0008381720007f0a70003f0a000000006006c
:1017d00083ff2700020020006110b900f9ff3700e5
:1017e00003ff2700f7ff3700c70ade00f107b2004a
:1017f000f50fb20008003200e1cf420002003200d3
:101800000170a00024000500810f7000010032006b
:101810000408050044000500810f700002003a0032
:10182000140005008502e9000000400081c0480066
:10183000fcff3b000170a00024000500020ab90073
:10184000001bb9000200b800810042008100430083
:04185000000006008e
:020000040000fa
:10185400656e0000747200006f20000061200000bb
:101864006c61000020660000756e00006369000072
:101874006f6e00002077000072690000746500003c
:101884000a0d0000006500006e740000726f000015
:10189400206100006c61000020660000756e00008d
:1018a400636900006f6e0000207200006561000033
:1018b400640a00000d000000be0c0000d00c000003
:020000040000fa
:1018c40000080000420000000200000004080600b6
:1018d40008060800010003000000000000000000ea
:1018e4000000000000006400080000000000000088
:1018f400002e04008a030000000000000000000025
:1019040000000000000000000000000000000000d3
:1019140000000000000000000000000000000000c3
:1019240000000000420800001e0000000200000049
:10193400286e69006c29000025006800076c090006
:101944004c836a009074a0007ac00000806888000c
:1019540000846c0082008100600800000200000026
:101964000000000062080000020000000200000005
:0819740001000000000000006a
:020000040000fa
:10197c000400fa00000f780021479800a0c228004c
:10198c00801f780057fb07008f87e9000080fa0062
:10199c00000006000200fa00000f780050c4280076
:1019ac00801f78004ffb07008f87e9000080fa004a
:1019bc00000006000400fa009e0090000000eb00fe
:1019cc00010001001e01780081c6b3000000eb008d
:0819dc0002000100ffff3700cb
:00000001FF
