:020000040000fa
:080000000002040000000000f2
:020000040000fa
:04000800c80200002a
:020000040000fa
:04000c00c802000026
:020000040000fa
:04001000c802000022
:020000040000fa
:04001400c80200001e
:020000040000fa
:04001800c80200001a
:020000040000fa
:04001c00c802000016
:020000040000fa
:04002000c802000012
:020000040000fa
:04002400c80200000e
:020000040000fa
:04002800c80200000a
:020000040000fa
:04002c00c802000006
:020000040000fa
:04003000c802000002
:020000040000fa
:04003400c8020000fe
:020000040000fa
:04003800c8020000fa
:020000040000fa
:04003c00c8020000f6
:020000040000fa
:04004000c8020000f2
:020000040000fa
:04004400c8020000ee
:020000040000fa
:04004800c8020000ea
:020000040000fa
:04004c00c8020000e6
:020000040000fa
:04005000c8020000e2
:020000040000fa
:04005400c8020000de
:020000040000fa
:04005800c8020000da
:020000040000fa
:04005c00c8020000d6
:020000040000fa
:04006000c8020000d2
:020000040000fa
:04006400c8020000ce
:020000040000fa
:04006800c8020000ca
:020000040000fa
:04006c00c8020000c6
:020000040000fa
:04007000c8020000c2
:020000040000fa
:04007400c8020000be
:020000040000fa
:04007800c8020000ba
:020000040000fa
:04007c00c8020000b6
:020000040000fa
:04008000c8020000b2
:020000040000fa
:04008400c8020000ae
:020000040000fa
:04008800c8020000aa
:020000040000fa
:04008c00c8020000a6
:020000040000fa
:04009000c8020000a2
:020000040000fa
:04009400c80200009e
:020000040000fa
:04009800c80200009a
:020000040000fa
:04009c00c802000096
:020000040000fa
:0400a000c802000092
:020000040000fa
:0400a400c80200008e
:020000040000fa
:0400a800c80200008a
:020000040000fa
:0400ac00c802000086
:020000040000fa
:0400b000c802000082
:020000040000fa
:0400b400c80200007e
:020000040000fa
:0400b800c80200007a
:020000040000fa
:0400bc00c802000076
:020000040000fa
:0400c000c802000072
:020000040000fa
:0400c400c80200006e
:020000040000fa
:0400c800c80200006a
:020000040000fa
:0400cc00c802000066
:020000040000fa
:0400d000c802000062
:020000040000fa
:0400d400c80200005e
:020000040000fa
:0400d800c80200005a
:020000040000fa
:0400dc00c802000056
:020000040000fa
:0400e000c802000052
:020000040000fa
:0400e400c80200004e
:020000040000fa
:0400e800c80200004a
:020000040000fa
:0400ec00c802000046
:020000040000fa
:0400f000c802000042
:020000040000fa
:0400f400c80200003e
:020000040000fa
:0400f800c80200003a
:020000040000fa
:0400fc00c802000036
:020000040000fa
:04010000c802000031
:020000040000fa
:04010400c80200002d
:020000040000fa
:04010800c802000029
:020000040000fa
:04010c00c802000025
:020000040000fa
:04011000c802000021
:020000040000fa
:04011400c80200001d
:020000040000fa
:04011800c802000019
:020000040000fa
:04011c00c802000015
:020000040000fa
:04012000c802000011
:020000040000fa
:04012400c80200000d
:020000040000fa
:04012800c802000009
:020000040000fa
:04012c00c802000005
:020000040000fa
:04013000c802000001
:020000040000fa
:04013400c8020000fd
:020000040000fa
:04013800c8020000f9
:020000040000fa
:04013c00c8020000f5
:020000040000fa
:04014000c8020000f1
:020000040000fa
:04014400c8020000ed
:020000040000fa
:04014800c8020000e9
:020000040000fa
:04014c00c8020000e5
:020000040000fa
:04015000c8020000e1
:020000040000fa
:04020800c802000028
:020000040000fa
:04020c00c802000024
:020000040000fa
:04021000c802000020
:020000040000fa
:04021400c80200001c
:020000040000fa
:04021800c802000018
:020000040000fa
:04021c00c802000014
:020000040000fa
:04022000c802000010
:020000040000fa
:04022400c80200000c
:020000040000fa
:04022800c802000008
:020000040000fa
:04022c00c802000004
:020000040000fa
:04023000c802000000
:020000040000fa
:04023400c8020000fc
:020000040000fa
:04023800c8020000f8
:020000040000fa
:04023c00c8020000f4
:020000040000fa
:04024000c8020000f0
:020000040000fa
:04024400c8020000ec
:020000040000fa
:04024800c8020000e8
:020000040000fa
:04024c00c8020000e4
:020000040000fa
:04025000c8020000e0
:020000040000fa
:04025400c8020000dc
:020000040000fa
:04025800c8020000d8
:020000040000fa
:04025c00c8020000d4
:020000040000fa
:04026000c8020000d0
:020000040000fa
:04026400c8020000cc
:020000040000fa
:04026800c8020000c8
:020000040000fa
:04026c00c8020000c4
:020000040000fa
:04027000c8020000c0
:020000040000fa
:04027400c8020000bc
:020000040000fa
:04027800c8020000b8
:020000040000fa
:04027c00c8020000b4
:020000040000fa
:04028000c8020000b0
:020000040000fa
:04028400c8020000ac
:020000040000fa
:04028800c8020000a8
:020000040000fa
:04028c00c8020000a4
:020000040000fa
:04029000c8020000a0
:020000040000fa
:04029400c80200009c
:020000040000fa
:04029800c802000098
:020000040000fa
:04029c00c802000094
:020000040000fa
:0402a000c802000090
:020000040000fa
:0402a400c80200008c
:020000040000fa
:0402a800c802000088
:020000040000fa
:0402ac00c802000084
:020000040000fa
:0402b000c802000080
:020000040000fa
:0402b400c80200007c
:020000040000fa
:0402b800c802000078
:020000040000fa
:0402bc00c802000074
:020000040000fa
:0402c000c802000070
:020000040000fa
:0402c400c80200006c
:020000040000fa
:0402c800c802000068
:020000040000fa
:0402cc00c802000064
:020000040000fa
:0402d000c802000060
:020000040000fa
:0402d400c80200005c
:020000040000fa
:0402d800c802000058
:020000040000fa
:0402dc00c802000054
:020000040000fa
:0402e000c802000050
:020000040000fa
:0402e400c80200004c
:020000040000fa
:0402e800c802000048
:020000040000fa
:0402ec00c802000044
:020000040000fa
:0402f000c802000040
:020000040000fa
:0402f400c80200003c
:020000040000fa
:0402f800c802000038
:020000040000fa
:0402fc00c802000034
:020000040000fa
:04030000c80200002f
:020000040000fa
:04030400c80200002b
:020000040000fa
:04030800c802000027
:020000040000fa
:04030c00c802000023
:020000040000fa
:04031000c80200001f
:020000040000fa
:04031400c80200001b
:020000040000fa
:04031800c802000017
:020000040000fa
:04031c00c802000013
:020000040000fa
:04032000c80200000f
:020000040000fa
:04032400c80200000b
:020000040000fa
:04032800c802000007
:020000040000fa
:04032c00c802000003
:020000040000fa
:04033000c8020000ff
:020000040000fa
:04033400c8020000fb
:020000040000fa
:04033800c8020000f7
:020000040000fa
:04033c00c8020000f3
:020000040000fa
:04034000c8020000ef
:020000040000fa
:04034400c8020000eb
:020000040000fa
:04034800c8020000e7
:020000040000fa
:04034c00c8020000e3
:020000040000fa
:04035000c8020000df
:020000040000fa
:100400000f8020000eff20000e0188000000000079
:10041000000020000000e000020032000001200087
:1004200020028800140007005b0007000000e000c5
:1004300003003a0000002000010020000200370005
:100440000000200001002000810f70000100320038
:1004500014000700000020000000e000020032004d
:100460000000020000000000620402000000000022
:100470000040da000000fe004440a900a000200077
:100480000000e0000300320000002000a00188000e
:100490004440a800000006008a1f78008b1f7800e7
:1004a0000000060091018800800478000000eb0045
:1004b0001a003700e284440032a0b4009905ba0063
:1004c000e284440032a0b4009906ba00e2844400f9
:1004d00032a0b4000006eb00476fde00fd07b2005b
:1004e000636ce10003003a00ebff07000000eb0043
:1004f0000a003700606ce10004003a00005deb0088
:100500008b05e900fdff3e00040037006168e10053
:10051000010032000086eb000b00070019c7ba008b
:100520001905ba000e04e00003003a000a00e000da
:10053000e0ff3a0000000600fe07b2009e018800be
:100540008a047800f5ff3700395dba008b05e900b1
:100550000c003200295dba008b05e900080032006a
:100560000c00e00003003a00e284440032a0b40032
:10057000f5ff370019ddba008b05e900faff3a00f4
:100580008904e800e184440032a0b40000000600c1
:0c0590000040da000000fe000000050042
:020000040000fa
:10059c00766c000061640000696d000069720000f7
:0405ac00000000004b
:020000040000fa
:1005b0000000fa0051168000000f2000008060004b
:1005c000501688004116800000ff2f000080600058
:1005d00040168800c8c2a900c8a2a900c882a90004
:1005e000ccc2a900cca2a900cc82a90000d42000d2
:1005f00031002000c700070000c3b300320007002d
:10060000801a260001002000c200070000c3b300ca
:100610002d000700401f200001002000bd00070042
:1006200020c3b30028000700401f20000100200065
:10063000b8000700401f200001002000b50007009f
:1006400080c2b30020000700401f200001002000ee
:10065000b000070080c0b3001b000700401f20004f
:1006600001002000ab000700f0c0b3001600070037
:10067000401f200001002000a600070010c0b300aa
:1006800011000700401f200001002000a10007000a
:1006900040c0b3000c000700401f200001002000f4
:1006a0009c000700401f2000010020009900070067
:1006b00060c0b30004000700c0c0b3000200070020
:1006c0000080fa00000006000200fa00004f7800e7
:1006d00051168000000f2000008060005016880036
:1006e0001e80fb004400de00004078000080fb001c
:1006f0006f00600051168000008070005016880066
:10070000ccc2a900cca2a9009001200001002000c9
:1007100080000700cc82a80090012000010020008a
:100720007c000700cc82a90051168000000f200039
:1007300000806000501688001e80fb006f00600083
:100740005116800000807000501688009001200033
:10075000010020006f000700cc82a800900120005b
:10076000010020006b000700cc82a9000080fa0085
:10077000000006000400fa00000f78000e80e80078
:10078000010878001e0078000000e0000700340037
:100790000e80e800100078008040780000ccb300a4
:1007a00000c04000c8ff0700060037000e80e800c8
:1007b000100078008040780000c8b30000c04000fe
:1007c000c1ff07000080fa00000006000200fa00e6
:1007d000000f780007003700401f200001002000b4
:1007e0004c0007001e00780010407800070007004a
:1007f0001e0fe8001e007800104078000004e000a2
:10080000f5ff3a000080fa00000006000200fa003e
:10081000004f7800401f2000010020003d0007002d
:1008200051168000000f20000080600050168800e4
:100830001e00fb004480de00004078000000fb004a
:100840006f00600051168000008070005016880014
:10085000ccc2a900cca2a800900120000100200079
:100860002c000700cc82a80090012000010020008d
:1008700028000700cc82a90051168000000f20003c
:1008800000806000501688001e00fb006f006000b2
:1008900051168000008070005016880090012000e2
:1008a000010020001b000700cc82a800900120005e
:1008b0000100200017000700cc82a9000080fa0088
:1008c000000006000000fa0039ff0700c902a90075
:1008d0008000eb000000eb00a6ff0700e02c2800e2
:1008e000baff070000122a0071002000090007006b
:1008f000cd02a80000122a007100200005000700a8
:10090000cd02a90000122a0071002000010007009a
:04091000efff3700be
:020000040000fa
:10091400f03fb1000180b10006003500ee0309008c
:1009240000000000403fb1000180b100fbff3d002a
:100934001000b000203fb000020035000080090024
:080944000000000000000600a5
:020000040000fa
:0200000401f009
:04000000ffffff00ff
:020000040000fa
:0200000401f009
:04000800ffffff00f7
:020000040000fa
:0200000401f009
:04000c00820000006e
:020000040000fa
:0200000401f009
:04001000a500000047
:020000040000fa
:0200000401f009
:040014005f00000089
:020000040000fa
:0200000401f009
:04001800f7000000ed
:020000040000fa
:0200000401f009
:04001c00dfff000002
:00000001FF
