:020000040000fa
:080000000002040000000000f2
:020000040000fa
:04000800f202000000
:020000040000fa
:04000c00f2020000fc
:020000040000fa
:04001000f2020000f8
:020000040000fa
:04001400f2020000f4
:020000040000fa
:04001800f2020000f0
:020000040000fa
:04001c00f2020000ec
:020000040000fa
:04002000f2020000e8
:020000040000fa
:04002400f2020000e4
:020000040000fa
:04002800f2020000e0
:020000040000fa
:04002c00f2020000dc
:020000040000fa
:04003000f2020000d8
:020000040000fa
:04003400cc020000fa
:020000040000fa
:04003800f2020000d0
:020000040000fa
:04003c00f2020000cc
:020000040000fa
:04004000f2020000c8
:020000040000fa
:04004400f2020000c4
:020000040000fa
:04004800f2020000c0
:020000040000fa
:04004c00f2020000bc
:020000040000fa
:04005000f2020000b8
:020000040000fa
:04005400f2020000b4
:020000040000fa
:04005800f2020000b0
:020000040000fa
:04005c00f2020000ac
:020000040000fa
:04006000f2020000a8
:020000040000fa
:04006400f2020000a4
:020000040000fa
:04006800f2020000a0
:020000040000fa
:04006c00f20200009c
:020000040000fa
:04007000f202000098
:020000040000fa
:04007400f202000094
:020000040000fa
:04007800f202000090
:020000040000fa
:04007c00f20200008c
:020000040000fa
:04008000f202000088
:020000040000fa
:04008400f202000084
:020000040000fa
:04008800f202000080
:020000040000fa
:04008c00f20200007c
:020000040000fa
:04009000f202000078
:020000040000fa
:04009400f202000074
:020000040000fa
:04009800f202000070
:020000040000fa
:04009c00f20200006c
:020000040000fa
:0400a000f202000068
:020000040000fa
:0400a400f202000064
:020000040000fa
:0400a800f202000060
:020000040000fa
:0400ac00f20200005c
:020000040000fa
:0400b000f202000058
:020000040000fa
:0400b400f202000054
:020000040000fa
:0400b800f202000050
:020000040000fa
:0400bc00f20200004c
:020000040000fa
:0400c000f202000048
:020000040000fa
:0400c400f202000044
:020000040000fa
:0400c800f202000040
:020000040000fa
:0400cc00f20200003c
:020000040000fa
:0400d000f202000038
:020000040000fa
:0400d400f202000034
:020000040000fa
:0400d800f202000030
:020000040000fa
:0400dc00f20200002c
:020000040000fa
:0400e000f202000028
:020000040000fa
:0400e400f202000024
:020000040000fa
:0400e800f202000020
:020000040000fa
:0400ec00f20200001c
:020000040000fa
:0400f000f202000018
:020000040000fa
:0400f400f202000014
:020000040000fa
:0400f800f202000010
:020000040000fa
:0400fc00f20200000c
:020000040000fa
:04010000f202000007
:020000040000fa
:04010400f202000003
:020000040000fa
:04010800f2020000ff
:020000040000fa
:04010c00f2020000fb
:020000040000fa
:04011000f2020000f7
:020000040000fa
:04011400f2020000f3
:020000040000fa
:04011800f2020000ef
:020000040000fa
:04011c00f2020000eb
:020000040000fa
:04012000f2020000e7
:020000040000fa
:04012400f2020000e3
:020000040000fa
:04012800f2020000df
:020000040000fa
:04012c00f2020000db
:020000040000fa
:04013000f2020000d7
:020000040000fa
:04013400f2020000d3
:020000040000fa
:04013800f2020000cf
:020000040000fa
:04013c00f2020000cb
:020000040000fa
:04014000f2020000c7
:020000040000fa
:04014400f2020000c3
:020000040000fa
:04014800f2020000bf
:020000040000fa
:04014c00f2020000bb
:020000040000fa
:04015000f2020000b7
:020000040000fa
:04020800f2020000fe
:020000040000fa
:04020c00f2020000fa
:020000040000fa
:04021000f2020000f6
:020000040000fa
:04021400f2020000f2
:020000040000fa
:04021800f2020000ee
:020000040000fa
:04021c00f2020000ea
:020000040000fa
:04022000f2020000e6
:020000040000fa
:04022400f2020000e2
:020000040000fa
:04022800f2020000de
:020000040000fa
:04022c00f2020000da
:020000040000fa
:04023000f2020000d6
:020000040000fa
:04023400cc020000f8
:020000040000fa
:04023800f2020000ce
:020000040000fa
:04023c00f2020000ca
:020000040000fa
:04024000f2020000c6
:020000040000fa
:04024400f2020000c2
:020000040000fa
:04024800f2020000be
:020000040000fa
:04024c00f2020000ba
:020000040000fa
:04025000f2020000b6
:020000040000fa
:04025400f2020000b2
:020000040000fa
:04025800f2020000ae
:020000040000fa
:04025c00f2020000aa
:020000040000fa
:04026000f2020000a6
:020000040000fa
:04026400f2020000a2
:020000040000fa
:04026800f20200009e
:020000040000fa
:04026c00f20200009a
:020000040000fa
:04027000f202000096
:020000040000fa
:04027400f202000092
:020000040000fa
:04027800f20200008e
:020000040000fa
:04027c00f20200008a
:020000040000fa
:04028000f202000086
:020000040000fa
:04028400f202000082
:020000040000fa
:04028800f20200007e
:020000040000fa
:04028c00f20200007a
:020000040000fa
:04029000f202000076
:020000040000fa
:04029400f202000072
:020000040000fa
:04029800f20200006e
:020000040000fa
:04029c00f20200006a
:020000040000fa
:0402a000f202000066
:020000040000fa
:0402a400f202000062
:020000040000fa
:0402a800f20200005e
:020000040000fa
:0402ac00f20200005a
:020000040000fa
:0402b000f202000056
:020000040000fa
:0402b400f202000052
:020000040000fa
:0402b800f20200004e
:020000040000fa
:0402bc00f20200004a
:020000040000fa
:0402c000f202000046
:020000040000fa
:0402c400f202000042
:020000040000fa
:0402c800f20200003e
:020000040000fa
:0402cc00f20200003a
:020000040000fa
:0402d000f202000036
:020000040000fa
:0402d400f202000032
:020000040000fa
:0402d800f20200002e
:020000040000fa
:0402dc00f20200002a
:020000040000fa
:0402e000f202000026
:020000040000fa
:0402e400f202000022
:020000040000fa
:0402e800f20200001e
:020000040000fa
:0402ec00f20200001a
:020000040000fa
:0402f000f202000016
:020000040000fa
:0402f400f202000012
:020000040000fa
:0402f800f20200000e
:020000040000fa
:0402fc00f20200000a
:020000040000fa
:04030000f202000005
:020000040000fa
:04030400f202000001
:020000040000fa
:04030800f2020000fd
:020000040000fa
:04030c00f2020000f9
:020000040000fa
:04031000f2020000f5
:020000040000fa
:04031400f2020000f1
:020000040000fa
:04031800f2020000ed
:020000040000fa
:04031c00f2020000e9
:020000040000fa
:04032000f2020000e5
:020000040000fa
:04032400f2020000e1
:020000040000fa
:04032800f2020000dd
:020000040000fa
:04032c00f2020000d9
:020000040000fa
:04033000f2020000d5
:020000040000fa
:04033400f2020000d1
:020000040000fa
:04033800f2020000cd
:020000040000fa
:04033c00f2020000c9
:020000040000fa
:04034000f2020000c5
:020000040000fa
:04034400f2020000c1
:020000040000fa
:04034800f2020000bd
:020000040000fa
:04034c00f2020000b9
:020000040000fa
:04035000f2020000b5
:020000040000fa
:100400002f8020000eff20000e0188000000000059
:10041000000020000000e000020032000001200087
:100420002002880014000700700007000000e000b0
:1004300003003a00a0352000010020000200370030
:100440000000200001002000810f70000100320038
:1004500014000700000020000000e000020032004d
:1004600000000200000000002e0302000000000057
:100470000040da000000fe004440a9000000200017
:100480000000e0000300320000002000a00188000e
:100490004440a800000006008a1f78008b1f7800e7
:1004a0000000060091018800800478000000eb0045
:1004b0001a003700e284440032a0b4009905ba0063
:1004c000e284440032a0b4009906ba00e2844400f9
:1004d00032a0b4000006eb00476fde00fd07b2005b
:1004e000636ce10003003a00ebff07000000eb0043
:1004f0000a003700606ce10004003a00005deb0088
:100500008b05e900fdff3e00040037006168e10053
:10051000010032000086eb000b00070019c7ba008b
:100520001905ba000e04e00003003a000a00e000da
:10053000e0ff3a0000000600fe07b2009e018800be
:100540008a047800f5ff3700395dba008b05e900b1
:100550000c003200295dba008b05e900080032006a
:100560000c00e00003003a00e284440032a0b40032
:10057000f5ff370019ddba008b05e900faff3a00f4
:100580008904e800e184440032a0b40000000600c1
:1005900000000000000000003600f800809fbe0050
:1005a000829fbe00849fbe00869fbe000000fa00ae
:1005b0008460a900004080000000e00002003200da
:1005c00000408000000001000080fa004f03be00e0
:1005d0004f02be004f01be004f00be003600f900c2
:1005e000004006000040da000000fe0000000500a8
:020000040000fa
:1005f0000000fa0005e1a9000421a90021088000fb
:10060000f0fc2f00008060000040a000200888005f
:100610000021ef0010a12700100888009460a800b6
:1006200021058000f0ff28000080600000d0a000bd
:10063000200588008460a90005e1a8000080fa0078
:10064000000006000200fa00000f78009e0078000b
:10065000014088000080fa00000006000000fa0057
:10066000c802a900e2ff0700a0332000f5ff070041
:10067000ffff37000000fa00601680006100600094
:1006800000f0a7000000ea000000e9004f00de00d3
:10069000004078000080fb0061006000611680006f
:1006a0000100a10001007000601688000080fa00bf
:0406b0000000060040
:020000040000fa
:1006b400000800000200000000000000000000002c
:020000040000fa
:0200000401f009
:04000000ffffff00ff
:020000040000fa
:0200000401f009
:04000800ffffff00f7
:020000040000fa
:0200000401f009
:04000c00820000006e
:020000040000fa
:0200000401f009
:04001000a500000047
:020000040000fa
:0200000401f009
:040014005f00000089
:020000040000fa
:0200000401f009
:04001800f7000000ed
:020000040000fa
:0200000401f009
:04001c00dfff000002
:00000001FF
